{
	"data": {
		"bytecode": {
			"linkReferences": {},
			"object": "6011610100908152705458313a204a6f686e202d3e205769636b60781b61012052608090815260136101408181527f5458323a205769636b202d3e20416c6c696365000000000000000000000000006101605260a05260156101809081527f5458333a20416c6c696365202d3e20436f6f70657200000000000000000000006101a05260c0526102006040526101c09081527f5458343a20436f6f706572202d3e2048656164000000000000000000000000006101e05260e052620000c9906001906004620002ff565b50348015620000d6575f80fd5b505f5b6004811015620001b0575f6200019560018360048110620000fe57620000fe620003c4565b0180546200010c90620003d8565b80601f01602080910402602001604051908101604052809291908181526020018280546200013a90620003d8565b8015620001895780601f106200015f5761010080835404028352916020019162000189565b820191905f5260205f20905b8154815290600101906020018083116200016b57829003601f168201915b5050620002ba92505050565b8154600181810184555f9384526020909320015501620000d9565b5060045f5b8115620002b2575f5b620001cb60018462000426565b8110156200028e575f80620001e1838562000442565b81548110620001f457620001f4620003c4565b5f918252602082200154906200020b848662000442565b6200021890600162000442565b815481106200022b576200022b620003c4565b905f5260205f2001546040516020016200024f929190918252602082015260400190565b60408051601f19818403018152919052805160209182012082546001810184555f9384529190922001556200028660028262000442565b9050620001be565b506200029b828262000442565b9050620002aa60028362000458565b9150620001b5565b5050620005d6565b5f620002c682620002d4565b805190602001209050919050565b606081604051602001620002e9919062000478565b6040516020818303038152906040529050919050565b82600481019282156200033d579160200282015b828111156200033d57825182906200032c90826200050a565b509160200191906001019062000313565b506200034b9291506200034f565b5090565b808211156200034b575f6200036582826200036f565b506001016200034f565b5080546200037d90620003d8565b5f825580601f106200038d575050565b601f0160209004905f5260205f2090810190620003ab9190620003ae565b50565b5b808211156200034b575f8155600101620003af565b634e487b7160e01b5f52603260045260245ffd5b600181811c90821680620003ed57607f821691505b6020821081036200040c57634e487b7160e01b5f52602260045260245ffd5b50919050565b634e487b7160e01b5f52601160045260245ffd5b818103818111156200043c576200043c62000412565b92915050565b808201808211156200043c576200043c62000412565b5f826200047357634e487b7160e01b5f52601260045260245ffd5b500490565b5f82515f5b818110156200049957602081860181015185830152016200047d565b505f920191825250919050565b634e487b7160e01b5f52604160045260245ffd5b601f8211156200050557805f5260205f20601f840160051c81016020851015620004e15750805b601f840160051c820191505b8181101562000502575f8155600101620004ed565b50505b505050565b81516001600160401b03811115620005265762000526620004a6565b6200053e81620005378454620003d8565b84620004ba565b602080601f83116001811462000574575f84156200055c5750858301515b5f19600386901b1c1916600185901b178555620005ce565b5f85815260208120601f198616915b82811015620005a45788860151825594840194600190910190840162000583565b5085821015620005c257878501515f19600388901b60f8161c191681555b505060018460011b0185555b505050505050565b6104ba80620005e45f395ff3fe608060405234801561000f575f80fd5b506004361061004a575f3560e01c80632637cccf1461004e578063501895ae1461007657806352de70af146100975780636a11b2a8146100aa575b5f80fd5b61006161005c3660046102a2565b6100ca565b60405190151581526020015b60405180910390f35b610089610084366004610376565b610192565b60405190815260200161006d565b6100896100a536600461038d565b6101b0565b6100bd6100b836600461038d565b6101c8565b60405161006d91906103e9565b5f806100d5866101b0565b90505f5b8351811015610186575f8482815181106100f5576100f561041b565b6020026020010151905060028761010c9190610443565b5f03610143576040805160208101859052908101829052606001604051602081830303815290604052805190602001209250610170565b60408051602081018390529081018490526060016040516020818303038152906040528051906020012092505b61017b600288610456565b9650506001016100d9565b50909214949350505050565b5f81815481106101a0575f80fd5b5f91825260209091200154905081565b5f6101ba826101c8565b805190602001209050919050565b6060816040516020016101db9190610469565b6040516020818303038152906040529050919050565b634e487b7160e01b5f52604160045260245ffd5b604051601f8201601f1916810167ffffffffffffffff8111828210171561022e5761022e6101f1565b604052919050565b5f82601f830112610245575f80fd5b813567ffffffffffffffff81111561025f5761025f6101f1565b610272601f8201601f1916602001610205565b818152846020838601011115610286575f80fd5b816020850160208301375f918101602001919091529392505050565b5f805f80608085870312156102b5575f80fd5b843567ffffffffffffffff808211156102cc575f80fd5b6102d888838901610236565b955060209150818701359450604087013593506060870135818111156102fc575f80fd5b8701601f8101891361030c575f80fd5b80358281111561031e5761031e6101f1565b8060051b925061032f848401610205565b818152928201840192848101908b851115610348575f80fd5b928501925b848410156103665783358252928501929085019061034d565b989b979a50959850505050505050565b5f60208284031215610386575f80fd5b5035919050565b5f6020828403121561039d575f80fd5b813567ffffffffffffffff8111156103b3575f80fd5b6103bf84828501610236565b949350505050565b5f5b838110156103e15781810151838201526020016103c9565b50505f910152565b602081525f82518060208401526104078160408501602087016103c7565b601f01601f19169190910160400192915050565b634e487b7160e01b5f52603260045260245ffd5b634e487b7160e01b5f52601260045260245ffd5b5f826104515761045161042f565b500690565b5f826104645761046461042f565b500490565b5f825161047a8184602087016103c7565b919091019291505056fea26469706673582212200ab77fab4ecc84dae850a17477052f5df9f438144b920e944077bc4bb9c290d864736f6c63430008160033",
			"opcodes": "PUSH1 0x11 PUSH2 0x100 SWAP1 DUP2 MSTORE PUSH17 0x5458313A204A6F686E202D3E205769636B PUSH1 0x78 SHL PUSH2 0x120 MSTORE PUSH1 0x80 SWAP1 DUP2 MSTORE PUSH1 0x13 PUSH2 0x140 DUP2 DUP2 MSTORE PUSH32 0x5458323A205769636B202D3E20416C6C69636500000000000000000000000000 PUSH2 0x160 MSTORE PUSH1 0xA0 MSTORE PUSH1 0x15 PUSH2 0x180 SWAP1 DUP2 MSTORE PUSH32 0x5458333A20416C6C696365202D3E20436F6F7065720000000000000000000000 PUSH2 0x1A0 MSTORE PUSH1 0xC0 MSTORE PUSH2 0x200 PUSH1 0x40 MSTORE PUSH2 0x1C0 SWAP1 DUP2 MSTORE PUSH32 0x5458343A20436F6F706572202D3E204865616400000000000000000000000000 PUSH2 0x1E0 MSTORE PUSH1 0xE0 MSTORE PUSH3 0xC9 SWAP1 PUSH1 0x1 SWAP1 PUSH1 0x4 PUSH3 0x2FF JUMP JUMPDEST POP CALLVALUE DUP1 ISZERO PUSH3 0xD6 JUMPI PUSH0 DUP1 REVERT JUMPDEST POP PUSH0 JUMPDEST PUSH1 0x4 DUP2 LT ISZERO PUSH3 0x1B0 JUMPI PUSH0 PUSH3 0x195 PUSH1 0x1 DUP4 PUSH1 0x4 DUP2 LT PUSH3 0xFE JUMPI PUSH3 0xFE PUSH3 0x3C4 JUMP JUMPDEST ADD DUP1 SLOAD PUSH3 0x10C SWAP1 PUSH3 0x3D8 JUMP JUMPDEST DUP1 PUSH1 0x1F ADD PUSH1 0x20 DUP1 SWAP2 DIV MUL PUSH1 0x20 ADD PUSH1 0x40 MLOAD SWAP1 DUP2 ADD PUSH1 0x40 MSTORE DUP1 SWAP3 SWAP2 SWAP1 DUP2 DUP2 MSTORE PUSH1 0x20 ADD DUP3 DUP1 SLOAD PUSH3 0x13A SWAP1 PUSH3 0x3D8 JUMP JUMPDEST DUP1 ISZERO PUSH3 0x189 JUMPI DUP1 PUSH1 0x1F LT PUSH3 0x15F JUMPI PUSH2 0x100 DUP1 DUP4 SLOAD DIV MUL DUP4 MSTORE SWAP2 PUSH1 0x20 ADD SWAP2 PUSH3 0x189 JUMP JUMPDEST DUP3 ADD SWAP2 SWAP1 PUSH0 MSTORE PUSH1 0x20 PUSH0 KECCAK256 SWAP1 JUMPDEST DUP2 SLOAD DUP2 MSTORE SWAP1 PUSH1 0x1 ADD SWAP1 PUSH1 0x20 ADD DUP1 DUP4 GT PUSH3 0x16B JUMPI DUP3 SWAP1 SUB PUSH1 0x1F AND DUP3 ADD SWAP2 JUMPDEST POP POP PUSH3 0x2BA SWAP3 POP POP POP JUMP JUMPDEST DUP2 SLOAD PUSH1 0x1 DUP2 DUP2 ADD DUP5 SSTORE PUSH0 SWAP4 DUP5 MSTORE PUSH1 0x20 SWAP1 SWAP4 KECCAK256 ADD SSTORE ADD PUSH3 0xD9 JUMP JUMPDEST POP PUSH1 0x4 PUSH0 JUMPDEST DUP2 ISZERO PUSH3 0x2B2 JUMPI PUSH0 JUMPDEST PUSH3 0x1CB PUSH1 0x1 DUP5 PUSH3 0x426 JUMP JUMPDEST DUP2 LT ISZERO PUSH3 0x28E JUMPI PUSH0 DUP1 PUSH3 0x1E1 DUP4 DUP6 PUSH3 0x442 JUMP JUMPDEST DUP2 SLOAD DUP2 LT PUSH3 0x1F4 JUMPI PUSH3 0x1F4 PUSH3 0x3C4 JUMP JUMPDEST PUSH0 SWAP2 DUP3 MSTORE PUSH1 0x20 DUP3 KECCAK256 ADD SLOAD SWAP1 PUSH3 0x20B DUP5 DUP7 PUSH3 0x442 JUMP JUMPDEST PUSH3 0x218 SWAP1 PUSH1 0x1 PUSH3 0x442 JUMP JUMPDEST DUP2 SLOAD DUP2 LT PUSH3 0x22B JUMPI PUSH3 0x22B PUSH3 0x3C4 JUMP JUMPDEST SWAP1 PUSH0 MSTORE PUSH1 0x20 PUSH0 KECCAK256 ADD SLOAD PUSH1 0x40 MLOAD PUSH1 0x20 ADD PUSH3 0x24F SWAP3 SWAP2 SWAP1 SWAP2 DUP3 MSTORE PUSH1 0x20 DUP3 ADD MSTORE PUSH1 0x40 ADD SWAP1 JUMP JUMPDEST PUSH1 0x40 DUP1 MLOAD PUSH1 0x1F NOT DUP2 DUP5 SUB ADD DUP2 MSTORE SWAP2 SWAP1 MSTORE DUP1 MLOAD PUSH1 0x20 SWAP2 DUP3 ADD KECCAK256 DUP3 SLOAD PUSH1 0x1 DUP2 ADD DUP5 SSTORE PUSH0 SWAP4 DUP5 MSTORE SWAP2 SWAP1 SWAP3 KECCAK256 ADD SSTORE PUSH3 0x286 PUSH1 0x2 DUP3 PUSH3 0x442 JUMP JUMPDEST SWAP1 POP PUSH3 0x1BE JUMP JUMPDEST POP PUSH3 0x29B DUP3 DUP3 PUSH3 0x442 JUMP JUMPDEST SWAP1 POP PUSH3 0x2AA PUSH1 0x2 DUP4 PUSH3 0x458 JUMP JUMPDEST SWAP2 POP PUSH3 0x1B5 JUMP JUMPDEST POP POP PUSH3 0x5D6 JUMP JUMPDEST PUSH0 PUSH3 0x2C6 DUP3 PUSH3 0x2D4 JUMP JUMPDEST DUP1 MLOAD SWAP1 PUSH1 0x20 ADD KECCAK256 SWAP1 POP SWAP2 SWAP1 POP JUMP JUMPDEST PUSH1 0x60 DUP2 PUSH1 0x40 MLOAD PUSH1 0x20 ADD PUSH3 0x2E9 SWAP2 SWAP1 PUSH3 0x478 JUMP JUMPDEST PUSH1 0x40 MLOAD PUSH1 0x20 DUP2 DUP4 SUB SUB DUP2 MSTORE SWAP1 PUSH1 0x40 MSTORE SWAP1 POP SWAP2 SWAP1 POP JUMP JUMPDEST DUP3 PUSH1 0x4 DUP2 ADD SWAP3 DUP3 ISZERO PUSH3 0x33D JUMPI SWAP2 PUSH1 0x20 MUL DUP3 ADD JUMPDEST DUP3 DUP2 GT ISZERO PUSH3 0x33D JUMPI DUP3 MLOAD DUP3 SWAP1 PUSH3 0x32C SWAP1 DUP3 PUSH3 0x50A JUMP JUMPDEST POP SWAP2 PUSH1 0x20 ADD SWAP2 SWAP1 PUSH1 0x1 ADD SWAP1 PUSH3 0x313 JUMP JUMPDEST POP PUSH3 0x34B SWAP3 SWAP2 POP PUSH3 0x34F JUMP JUMPDEST POP SWAP1 JUMP JUMPDEST DUP1 DUP3 GT ISZERO PUSH3 0x34B JUMPI PUSH0 PUSH3 0x365 DUP3 DUP3 PUSH3 0x36F JUMP JUMPDEST POP PUSH1 0x1 ADD PUSH3 0x34F JUMP JUMPDEST POP DUP1 SLOAD PUSH3 0x37D SWAP1 PUSH3 0x3D8 JUMP JUMPDEST PUSH0 DUP3 SSTORE DUP1 PUSH1 0x1F LT PUSH3 0x38D JUMPI POP POP JUMP JUMPDEST PUSH1 0x1F ADD PUSH1 0x20 SWAP1 DIV SWAP1 PUSH0 MSTORE PUSH1 0x20 PUSH0 KECCAK256 SWAP1 DUP2 ADD SWAP1 PUSH3 0x3AB SWAP2 SWAP1 PUSH3 0x3AE JUMP JUMPDEST POP JUMP JUMPDEST JUMPDEST DUP1 DUP3 GT ISZERO PUSH3 0x34B JUMPI PUSH0 DUP2 SSTORE PUSH1 0x1 ADD PUSH3 0x3AF JUMP JUMPDEST PUSH4 0x4E487B71 PUSH1 0xE0 SHL PUSH0 MSTORE PUSH1 0x32 PUSH1 0x4 MSTORE PUSH1 0x24 PUSH0 REVERT JUMPDEST PUSH1 0x1 DUP2 DUP2 SHR SWAP1 DUP3 AND DUP1 PUSH3 0x3ED JUMPI PUSH1 0x7F DUP3 AND SWAP2 POP JUMPDEST PUSH1 0x20 DUP3 LT DUP2 SUB PUSH3 0x40C JUMPI PUSH4 0x4E487B71 PUSH1 0xE0 SHL PUSH0 MSTORE PUSH1 0x22 PUSH1 0x4 MSTORE PUSH1 0x24 PUSH0 REVERT JUMPDEST POP SWAP2 SWAP1 POP JUMP JUMPDEST PUSH4 0x4E487B71 PUSH1 0xE0 SHL PUSH0 MSTORE PUSH1 0x11 PUSH1 0x4 MSTORE PUSH1 0x24 PUSH0 REVERT JUMPDEST DUP2 DUP2 SUB DUP2 DUP2 GT ISZERO PUSH3 0x43C JUMPI PUSH3 0x43C PUSH3 0x412 JUMP JUMPDEST SWAP3 SWAP2 POP POP JUMP JUMPDEST DUP1 DUP3 ADD DUP1 DUP3 GT ISZERO PUSH3 0x43C JUMPI PUSH3 0x43C PUSH3 0x412 JUMP JUMPDEST PUSH0 DUP3 PUSH3 0x473 JUMPI PUSH4 0x4E487B71 PUSH1 0xE0 SHL PUSH0 MSTORE PUSH1 0x12 PUSH1 0x4 MSTORE PUSH1 0x24 PUSH0 REVERT JUMPDEST POP DIV SWAP1 JUMP JUMPDEST PUSH0 DUP3 MLOAD PUSH0 JUMPDEST DUP2 DUP2 LT ISZERO PUSH3 0x499 JUMPI PUSH1 0x20 DUP2 DUP7 ADD DUP2 ADD MLOAD DUP6 DUP4 ADD MSTORE ADD PUSH3 0x47D JUMP JUMPDEST POP PUSH0 SWAP3 ADD SWAP2 DUP3 MSTORE POP SWAP2 SWAP1 POP JUMP JUMPDEST PUSH4 0x4E487B71 PUSH1 0xE0 SHL PUSH0 MSTORE PUSH1 0x41 PUSH1 0x4 MSTORE PUSH1 0x24 PUSH0 REVERT JUMPDEST PUSH1 0x1F DUP3 GT ISZERO PUSH3 0x505 JUMPI DUP1 PUSH0 MSTORE PUSH1 0x20 PUSH0 KECCAK256 PUSH1 0x1F DUP5 ADD PUSH1 0x5 SHR DUP2 ADD PUSH1 0x20 DUP6 LT ISZERO PUSH3 0x4E1 JUMPI POP DUP1 JUMPDEST PUSH1 0x1F DUP5 ADD PUSH1 0x5 SHR DUP3 ADD SWAP2 POP JUMPDEST DUP2 DUP2 LT ISZERO PUSH3 0x502 JUMPI PUSH0 DUP2 SSTORE PUSH1 0x1 ADD PUSH3 0x4ED JUMP JUMPDEST POP POP JUMPDEST POP POP POP JUMP JUMPDEST DUP2 MLOAD PUSH1 0x1 PUSH1 0x1 PUSH1 0x40 SHL SUB DUP2 GT ISZERO PUSH3 0x526 JUMPI PUSH3 0x526 PUSH3 0x4A6 JUMP JUMPDEST PUSH3 0x53E DUP2 PUSH3 0x537 DUP5 SLOAD PUSH3 0x3D8 JUMP JUMPDEST DUP5 PUSH3 0x4BA JUMP JUMPDEST PUSH1 0x20 DUP1 PUSH1 0x1F DUP4 GT PUSH1 0x1 DUP2 EQ PUSH3 0x574 JUMPI PUSH0 DUP5 ISZERO PUSH3 0x55C JUMPI POP DUP6 DUP4 ADD MLOAD JUMPDEST PUSH0 NOT PUSH1 0x3 DUP7 SWAP1 SHL SHR NOT AND PUSH1 0x1 DUP6 SWAP1 SHL OR DUP6 SSTORE PUSH3 0x5CE JUMP JUMPDEST PUSH0 DUP6 DUP2 MSTORE PUSH1 0x20 DUP2 KECCAK256 PUSH1 0x1F NOT DUP7 AND SWAP2 JUMPDEST DUP3 DUP2 LT ISZERO PUSH3 0x5A4 JUMPI DUP9 DUP7 ADD MLOAD DUP3 SSTORE SWAP5 DUP5 ADD SWAP5 PUSH1 0x1 SWAP1 SWAP2 ADD SWAP1 DUP5 ADD PUSH3 0x583 JUMP JUMPDEST POP DUP6 DUP3 LT ISZERO PUSH3 0x5C2 JUMPI DUP8 DUP6 ADD MLOAD PUSH0 NOT PUSH1 0x3 DUP9 SWAP1 SHL PUSH1 0xF8 AND SHR NOT AND DUP2 SSTORE JUMPDEST POP POP PUSH1 0x1 DUP5 PUSH1 0x1 SHL ADD DUP6 SSTORE JUMPDEST POP POP POP POP POP POP JUMP JUMPDEST PUSH2 0x4BA DUP1 PUSH3 0x5E4 PUSH0 CODECOPY PUSH0 RETURN INVALID PUSH1 0x80 PUSH1 0x40 MSTORE CALLVALUE DUP1 ISZERO PUSH2 0xF JUMPI PUSH0 DUP1 REVERT JUMPDEST POP PUSH1 0x4 CALLDATASIZE LT PUSH2 0x4A JUMPI PUSH0 CALLDATALOAD PUSH1 0xE0 SHR DUP1 PUSH4 0x2637CCCF EQ PUSH2 0x4E JUMPI DUP1 PUSH4 0x501895AE EQ PUSH2 0x76 JUMPI DUP1 PUSH4 0x52DE70AF EQ PUSH2 0x97 JUMPI DUP1 PUSH4 0x6A11B2A8 EQ PUSH2 0xAA JUMPI JUMPDEST PUSH0 DUP1 REVERT JUMPDEST PUSH2 0x61 PUSH2 0x5C CALLDATASIZE PUSH1 0x4 PUSH2 0x2A2 JUMP JUMPDEST PUSH2 0xCA JUMP JUMPDEST PUSH1 0x40 MLOAD SWAP1 ISZERO ISZERO DUP2 MSTORE PUSH1 0x20 ADD JUMPDEST PUSH1 0x40 MLOAD DUP1 SWAP2 SUB SWAP1 RETURN JUMPDEST PUSH2 0x89 PUSH2 0x84 CALLDATASIZE PUSH1 0x4 PUSH2 0x376 JUMP JUMPDEST PUSH2 0x192 JUMP JUMPDEST PUSH1 0x40 MLOAD SWAP1 DUP2 MSTORE PUSH1 0x20 ADD PUSH2 0x6D JUMP JUMPDEST PUSH2 0x89 PUSH2 0xA5 CALLDATASIZE PUSH1 0x4 PUSH2 0x38D JUMP JUMPDEST PUSH2 0x1B0 JUMP JUMPDEST PUSH2 0xBD PUSH2 0xB8 CALLDATASIZE PUSH1 0x4 PUSH2 0x38D JUMP JUMPDEST PUSH2 0x1C8 JUMP JUMPDEST PUSH1 0x40 MLOAD PUSH2 0x6D SWAP2 SWAP1 PUSH2 0x3E9 JUMP JUMPDEST PUSH0 DUP1 PUSH2 0xD5 DUP7 PUSH2 0x1B0 JUMP JUMPDEST SWAP1 POP PUSH0 JUMPDEST DUP4 MLOAD DUP2 LT ISZERO PUSH2 0x186 JUMPI PUSH0 DUP5 DUP3 DUP2 MLOAD DUP2 LT PUSH2 0xF5 JUMPI PUSH2 0xF5 PUSH2 0x41B JUMP JUMPDEST PUSH1 0x20 MUL PUSH1 0x20 ADD ADD MLOAD SWAP1 POP PUSH1 0x2 DUP8 PUSH2 0x10C SWAP2 SWAP1 PUSH2 0x443 JUMP JUMPDEST PUSH0 SUB PUSH2 0x143 JUMPI PUSH1 0x40 DUP1 MLOAD PUSH1 0x20 DUP2 ADD DUP6 SWAP1 MSTORE SWAP1 DUP2 ADD DUP3 SWAP1 MSTORE PUSH1 0x60 ADD PUSH1 0x40 MLOAD PUSH1 0x20 DUP2 DUP4 SUB SUB DUP2 MSTORE SWAP1 PUSH1 0x40 MSTORE DUP1 MLOAD SWAP1 PUSH1 0x20 ADD KECCAK256 SWAP3 POP PUSH2 0x170 JUMP JUMPDEST PUSH1 0x40 DUP1 MLOAD PUSH1 0x20 DUP2 ADD DUP4 SWAP1 MSTORE SWAP1 DUP2 ADD DUP5 SWAP1 MSTORE PUSH1 0x60 ADD PUSH1 0x40 MLOAD PUSH1 0x20 DUP2 DUP4 SUB SUB DUP2 MSTORE SWAP1 PUSH1 0x40 MSTORE DUP1 MLOAD SWAP1 PUSH1 0x20 ADD KECCAK256 SWAP3 POP JUMPDEST PUSH2 0x17B PUSH1 0x2 DUP9 PUSH2 0x456 JUMP JUMPDEST SWAP7 POP POP PUSH1 0x1 ADD PUSH2 0xD9 JUMP JUMPDEST POP SWAP1 SWAP3 EQ SWAP5 SWAP4 POP POP POP POP JUMP JUMPDEST PUSH0 DUP2 DUP2 SLOAD DUP2 LT PUSH2 0x1A0 JUMPI PUSH0 DUP1 REVERT JUMPDEST PUSH0 SWAP2 DUP3 MSTORE PUSH1 0x20 SWAP1 SWAP2 KECCAK256 ADD SLOAD SWAP1 POP DUP2 JUMP JUMPDEST PUSH0 PUSH2 0x1BA DUP3 PUSH2 0x1C8 JUMP JUMPDEST DUP1 MLOAD SWAP1 PUSH1 0x20 ADD KECCAK256 SWAP1 POP SWAP2 SWAP1 POP JUMP JUMPDEST PUSH1 0x60 DUP2 PUSH1 0x40 MLOAD PUSH1 0x20 ADD PUSH2 0x1DB SWAP2 SWAP1 PUSH2 0x469 JUMP JUMPDEST PUSH1 0x40 MLOAD PUSH1 0x20 DUP2 DUP4 SUB SUB DUP2 MSTORE SWAP1 PUSH1 0x40 MSTORE SWAP1 POP SWAP2 SWAP1 POP JUMP JUMPDEST PUSH4 0x4E487B71 PUSH1 0xE0 SHL PUSH0 MSTORE PUSH1 0x41 PUSH1 0x4 MSTORE PUSH1 0x24 PUSH0 REVERT JUMPDEST PUSH1 0x40 MLOAD PUSH1 0x1F DUP3 ADD PUSH1 0x1F NOT AND DUP2 ADD PUSH8 0xFFFFFFFFFFFFFFFF DUP2 GT DUP3 DUP3 LT OR ISZERO PUSH2 0x22E JUMPI PUSH2 0x22E PUSH2 0x1F1 JUMP JUMPDEST PUSH1 0x40 MSTORE SWAP2 SWAP1 POP JUMP JUMPDEST PUSH0 DUP3 PUSH1 0x1F DUP4 ADD SLT PUSH2 0x245 JUMPI PUSH0 DUP1 REVERT JUMPDEST DUP2 CALLDATALOAD PUSH8 0xFFFFFFFFFFFFFFFF DUP2 GT ISZERO PUSH2 0x25F JUMPI PUSH2 0x25F PUSH2 0x1F1 JUMP JUMPDEST PUSH2 0x272 PUSH1 0x1F DUP3 ADD PUSH1 0x1F NOT AND PUSH1 0x20 ADD PUSH2 0x205 JUMP JUMPDEST DUP2 DUP2 MSTORE DUP5 PUSH1 0x20 DUP4 DUP7 ADD ADD GT ISZERO PUSH2 0x286 JUMPI PUSH0 DUP1 REVERT JUMPDEST DUP2 PUSH1 0x20 DUP6 ADD PUSH1 0x20 DUP4 ADD CALLDATACOPY PUSH0 SWAP2 DUP2 ADD PUSH1 0x20 ADD SWAP2 SWAP1 SWAP2 MSTORE SWAP4 SWAP3 POP POP POP JUMP JUMPDEST PUSH0 DUP1 PUSH0 DUP1 PUSH1 0x80 DUP6 DUP8 SUB SLT ISZERO PUSH2 0x2B5 JUMPI PUSH0 DUP1 REVERT JUMPDEST DUP5 CALLDATALOAD PUSH8 0xFFFFFFFFFFFFFFFF DUP1 DUP3 GT ISZERO PUSH2 0x2CC JUMPI PUSH0 DUP1 REVERT JUMPDEST PUSH2 0x2D8 DUP9 DUP4 DUP10 ADD PUSH2 0x236 JUMP JUMPDEST SWAP6 POP PUSH1 0x20 SWAP2 POP DUP2 DUP8 ADD CALLDATALOAD SWAP5 POP PUSH1 0x40 DUP8 ADD CALLDATALOAD SWAP4 POP PUSH1 0x60 DUP8 ADD CALLDATALOAD DUP2 DUP2 GT ISZERO PUSH2 0x2FC JUMPI PUSH0 DUP1 REVERT JUMPDEST DUP8 ADD PUSH1 0x1F DUP2 ADD DUP10 SGT PUSH2 0x30C JUMPI PUSH0 DUP1 REVERT JUMPDEST DUP1 CALLDATALOAD DUP3 DUP2 GT ISZERO PUSH2 0x31E JUMPI PUSH2 0x31E PUSH2 0x1F1 JUMP JUMPDEST DUP1 PUSH1 0x5 SHL SWAP3 POP PUSH2 0x32F DUP5 DUP5 ADD PUSH2 0x205 JUMP JUMPDEST DUP2 DUP2 MSTORE SWAP3 DUP3 ADD DUP5 ADD SWAP3 DUP5 DUP2 ADD SWAP1 DUP12 DUP6 GT ISZERO PUSH2 0x348 JUMPI PUSH0 DUP1 REVERT JUMPDEST SWAP3 DUP6 ADD SWAP3 JUMPDEST DUP5 DUP5 LT ISZERO PUSH2 0x366 JUMPI DUP4 CALLDATALOAD DUP3 MSTORE SWAP3 DUP6 ADD SWAP3 SWAP1 DUP6 ADD SWAP1 PUSH2 0x34D JUMP JUMPDEST SWAP9 SWAP12 SWAP8 SWAP11 POP SWAP6 SWAP9 POP POP POP POP POP POP POP JUMP JUMPDEST PUSH0 PUSH1 0x20 DUP3 DUP5 SUB SLT ISZERO PUSH2 0x386 JUMPI PUSH0 DUP1 REVERT JUMPDEST POP CALLDATALOAD SWAP2 SWAP1 POP JUMP JUMPDEST PUSH0 PUSH1 0x20 DUP3 DUP5 SUB SLT ISZERO PUSH2 0x39D JUMPI PUSH0 DUP1 REVERT JUMPDEST DUP2 CALLDATALOAD PUSH8 0xFFFFFFFFFFFFFFFF DUP2 GT ISZERO PUSH2 0x3B3 JUMPI PUSH0 DUP1 REVERT JUMPDEST PUSH2 0x3BF DUP5 DUP3 DUP6 ADD PUSH2 0x236 JUMP JUMPDEST SWAP5 SWAP4 POP POP POP POP JUMP JUMPDEST PUSH0 JUMPDEST DUP4 DUP2 LT ISZERO PUSH2 0x3E1 JUMPI DUP2 DUP2 ADD MLOAD DUP4 DUP3 ADD MSTORE PUSH1 0x20 ADD PUSH2 0x3C9 JUMP JUMPDEST POP POP PUSH0 SWAP2 ADD MSTORE JUMP JUMPDEST PUSH1 0x20 DUP2 MSTORE PUSH0 DUP3 MLOAD DUP1 PUSH1 0x20 DUP5 ADD MSTORE PUSH2 0x407 DUP2 PUSH1 0x40 DUP6 ADD PUSH1 0x20 DUP8 ADD PUSH2 0x3C7 JUMP JUMPDEST PUSH1 0x1F ADD PUSH1 0x1F NOT AND SWAP2 SWAP1 SWAP2 ADD PUSH1 0x40 ADD SWAP3 SWAP2 POP POP JUMP JUMPDEST PUSH4 0x4E487B71 PUSH1 0xE0 SHL PUSH0 MSTORE PUSH1 0x32 PUSH1 0x4 MSTORE PUSH1 0x24 PUSH0 REVERT JUMPDEST PUSH4 0x4E487B71 PUSH1 0xE0 SHL PUSH0 MSTORE PUSH1 0x12 PUSH1 0x4 MSTORE PUSH1 0x24 PUSH0 REVERT JUMPDEST PUSH0 DUP3 PUSH2 0x451 JUMPI PUSH2 0x451 PUSH2 0x42F JUMP JUMPDEST POP MOD SWAP1 JUMP JUMPDEST PUSH0 DUP3 PUSH2 0x464 JUMPI PUSH2 0x464 PUSH2 0x42F JUMP JUMPDEST POP DIV SWAP1 JUMP JUMPDEST PUSH0 DUP3 MLOAD PUSH2 0x47A DUP2 DUP5 PUSH1 0x20 DUP8 ADD PUSH2 0x3C7 JUMP JUMPDEST SWAP2 SWAP1 SWAP2 ADD SWAP3 SWAP2 POP POP JUMP INVALID LOG2 PUSH5 0x6970667358 0x22 SLT KECCAK256 EXP 0xB7 PUSH32 0xAB4ECC84DAE850A17477052F5DF9F438144B920E944077BC4BB9C290D864736F PUSH13 0x63430008160033000000000000 "
		},
		"gasEstimates": {
			"creation": {
				"codeDepositCost": "242000",
				"executionCost": "infinite",
				"totalCost": "infinite"
			},
			"external": {
				"encode(string)": "infinite",
				"hashes(uint256)": "4571",
				"makeHash(string)": "infinite",
				"verify(string,uint256,bytes32,bytes32[])": "infinite"
			}
		},
		"methodIdentifiers": {
			"encode(string)": "6a11b2a8",
			"hashes(uint256)": "501895ae",
			"makeHash(string)": "52de70af",
			"verify(string,uint256,bytes32,bytes32[])": "2637cccf"
		}
	},
	"abi": [
		{
			"inputs": [],
			"stateMutability": "nonpayable",
			"type": "constructor"
		},
		{
			"inputs": [
				{
					"internalType": "string",
					"name": "input",
					"type": "string"
				}
			],
			"name": "encode",
			"outputs": [
				{
					"internalType": "bytes",
					"name": "",
					"type": "bytes"
				}
			],
			"stateMutability": "pure",
			"type": "function"
		},
		{
			"inputs": [
				{
					"internalType": "uint256",
					"name": "",
					"type": "uint256"
				}
			],
			"name": "hashes",
			"outputs": [
				{
					"internalType": "bytes32",
					"name": "",
					"type": "bytes32"
				}
			],
			"stateMutability": "view",
			"type": "function"
		},
		{
			"inputs": [
				{
					"internalType": "string",
					"name": "input",
					"type": "string"
				}
			],
			"name": "makeHash",
			"outputs": [
				{
					"internalType": "bytes32",
					"name": "",
					"type": "bytes32"
				}
			],
			"stateMutability": "pure",
			"type": "function"
		},
		{
			"inputs": [
				{
					"internalType": "string",
					"name": "transaction",
					"type": "string"
				},
				{
					"internalType": "uint256",
					"name": "index",
					"type": "uint256"
				},
				{
					"internalType": "bytes32",
					"name": "root",
					"type": "bytes32"
				},
				{
					"internalType": "bytes32[]",
					"name": "proof",
					"type": "bytes32[]"
				}
			],
			"name": "verify",
			"outputs": [
				{
					"internalType": "bool",
					"name": "",
					"type": "bool"
				}
			],
			"stateMutability": "pure",
			"type": "function"
		}
	]
}