{
	"Blockchain/function/l6_func_pure_view_payable_fallback.sol": {
		"Demo": {
			"abi": [
				{
					"stateMutability": "payable",
					"type": "fallback"
				},
				{
					"inputs": [],
					"name": "balance",
					"outputs": [
						{
							"internalType": "uint256",
							"name": "",
							"type": "uint256"
						}
					],
					"stateMutability": "view",
					"type": "function"
				},
				{
					"inputs": [],
					"name": "getBalance",
					"outputs": [
						{
							"internalType": "uint256",
							"name": "balance",
							"type": "uint256"
						}
					],
					"stateMutability": "view",
					"type": "function"
				},
				{
					"inputs": [],
					"name": "getMessage",
					"outputs": [
						{
							"internalType": "string",
							"name": "",
							"type": "string"
						}
					],
					"stateMutability": "view",
					"type": "function"
				},
				{
					"inputs": [],
					"name": "pay",
					"outputs": [],
					"stateMutability": "payable",
					"type": "function"
				},
				{
					"inputs": [
						{
							"internalType": "uint256",
							"name": "amount",
							"type": "uint256"
						}
					],
					"name": "rate",
					"outputs": [
						{
							"internalType": "uint256",
							"name": "",
							"type": "uint256"
						}
					],
					"stateMutability": "pure",
					"type": "function"
				},
				{
					"inputs": [
						{
							"internalType": "string",
							"name": "newMessage",
							"type": "string"
						}
					],
					"name": "setMessage",
					"outputs": [],
					"stateMutability": "nonpayable",
					"type": "function"
				},
				{
					"stateMutability": "payable",
					"type": "receive"
				}
			],
			"devdoc": {
				"kind": "dev",
				"methods": {},
				"version": 1
			},
			"evm": {
				"assembly": "    /* \"Blockchain/function/l6_func_pure_view_payable_fallback.sol\":1421:1446  string message = \"Hello!\" */\n  0xc0\n    /* \"Blockchain/function/l6_func_pure_view_payable_fallback.sol\":62:3842  contract Demo{... */\n  0x40\n    /* \"Blockchain/function/l6_func_pure_view_payable_fallback.sol\":1421:1446  string message = \"Hello!\" */\n  mstore\n  0x06\n    /* \"Blockchain/function/l6_func_pure_view_payable_fallback.sol\":62:3842  contract Demo{... */\n  0x80\n    /* \"Blockchain/function/l6_func_pure_view_payable_fallback.sol\":1421:1446  string message = \"Hello!\" */\n  swap1\n  dup2\n  mstore\n  mstore(0xa0, shl(0xd0, 0x48656c6c6f21))\n  0x00\n  swap1\n  tag_1\n  swap1\n  dup3\n  tag_2\n  jump\t// in\ntag_1:\n  pop\n    /* \"Blockchain/function/l6_func_pure_view_payable_fallback.sol\":62:3842  contract Demo{... */\n  callvalue\n  dup1\n  iszero\n  tag_3\n  jumpi\n  0x00\n  dup1\n  revert\ntag_3:\n  pop\n  jump(tag_10)\n    /* \"#utility.yul\":14:141   */\ntag_5:\n    /* \"#utility.yul\":75:85   */\n  0x4e487b71\n    /* \"#utility.yul\":70:73   */\n  0xe0\n    /* \"#utility.yul\":66:86   */\n  shl\n    /* \"#utility.yul\":63:64   */\n  0x00\n    /* \"#utility.yul\":56:87   */\n  mstore\n    /* \"#utility.yul\":106:110   */\n  0x41\n    /* \"#utility.yul\":103:104   */\n  0x04\n    /* \"#utility.yul\":96:111   */\n  mstore\n    /* \"#utility.yul\":130:134   */\n  0x24\n    /* \"#utility.yul\":127:128   */\n  0x00\n    /* \"#utility.yul\":120:135   */\n  revert\n    /* \"#utility.yul\":146:526   */\ntag_6:\n    /* \"#utility.yul\":225:226   */\n  0x01\n    /* \"#utility.yul\":221:233   */\n  dup2\n  dup2\n  shr\n  swap1\n    /* \"#utility.yul\":268:280   */\n  dup3\n  and\n  dup1\n    /* \"#utility.yul\":289:350   */\n  tag_13\n  jumpi\n    /* \"#utility.yul\":343:347   */\n  0x7f\n    /* \"#utility.yul\":335:341   */\n  dup3\n    /* \"#utility.yul\":331:348   */\n  and\n    /* \"#utility.yul\":321:348   */\n  swap2\n  pop\n    /* \"#utility.yul\":289:350   */\ntag_13:\n    /* \"#utility.yul\":396:398   */\n  0x20\n    /* \"#utility.yul\":388:394   */\n  dup3\n    /* \"#utility.yul\":385:399   */\n  lt\n    /* \"#utility.yul\":365:383   */\n  dup2\n    /* \"#utility.yul\":362:400   */\n  sub\n    /* \"#utility.yul\":359:520   */\n  tag_14\n  jumpi\n    /* \"#utility.yul\":442:452   */\n  0x4e487b71\n    /* \"#utility.yul\":437:440   */\n  0xe0\n    /* \"#utility.yul\":433:453   */\n  shl\n    /* \"#utility.yul\":430:431   */\n  0x00\n    /* \"#utility.yul\":423:454   */\n  mstore\n    /* \"#utility.yul\":477:481   */\n  0x22\n    /* \"#utility.yul\":474:475   */\n  0x04\n    /* \"#utility.yul\":467:482   */\n  mstore\n    /* \"#utility.yul\":505:509   */\n  0x24\n    /* \"#utility.yul\":502:503   */\n  0x00\n    /* \"#utility.yul\":495:510   */\n  revert\n    /* \"#utility.yul\":359:520   */\ntag_14:\n  pop\n    /* \"#utility.yul\":146:526   */\n  swap2\n  swap1\n  pop\n  jump\t// out\n    /* \"#utility.yul\":657:1175   */\ntag_8:\n    /* \"#utility.yul\":759:761   */\n  0x1f\n    /* \"#utility.yul\":754:757   */\n  dup3\n    /* \"#utility.yul\":751:762   */\n  gt\n    /* \"#utility.yul\":748:1169   */\n  iszero\n  tag_17\n  jumpi\n    /* \"#utility.yul\":795:800   */\n  dup1\n    /* \"#utility.yul\":792:793   */\n  0x00\n    /* \"#utility.yul\":785:801   */\n  mstore\n    /* \"#utility.yul\":839:843   */\n  0x20\n    /* \"#utility.yul\":836:837   */\n  0x00\n    /* \"#utility.yul\":826:844   */\n  keccak256\n    /* \"#utility.yul\":909:911   */\n  0x1f\n    /* \"#utility.yul\":897:907   */\n  dup5\n    /* \"#utility.yul\":893:912   */\n  add\n    /* \"#utility.yul\":890:891   */\n  0x05\n    /* \"#utility.yul\":886:913   */\n  shr\n    /* \"#utility.yul\":880:884   */\n  dup2\n    /* \"#utility.yul\":876:914   */\n  add\n    /* \"#utility.yul\":945:949   */\n  0x20\n    /* \"#utility.yul\":933:943   */\n  dup6\n    /* \"#utility.yul\":930:950   */\n  lt\n    /* \"#utility.yul\":927:974   */\n  iszero\n  tag_18\n  jumpi\n  pop\n    /* \"#utility.yul\":968:972   */\n  dup1\n    /* \"#utility.yul\":927:974   */\ntag_18:\n    /* \"#utility.yul\":1023:1025   */\n  0x1f\n    /* \"#utility.yul\":1018:1021   */\n  dup5\n    /* \"#utility.yul\":1014:1026   */\n  add\n    /* \"#utility.yul\":1011:1012   */\n  0x05\n    /* \"#utility.yul\":1007:1027   */\n  shr\n    /* \"#utility.yul\":1001:1005   */\n  dup3\n    /* \"#utility.yul\":997:1028   */\n  add\n    /* \"#utility.yul\":987:1028   */\n  swap2\n  pop\n    /* \"#utility.yul\":1078:1159   */\ntag_19:\n    /* \"#utility.yul\":1096:1098   */\n  dup2\n    /* \"#utility.yul\":1089:1094   */\n  dup2\n    /* \"#utility.yul\":1086:1099   */\n  lt\n    /* \"#utility.yul\":1078:1159   */\n  iszero\n  tag_21\n  jumpi\n    /* \"#utility.yul\":1155:1156   */\n  0x00\n    /* \"#utility.yul\":1141:1157   */\n  dup2\n  sstore\n    /* \"#utility.yul\":1122:1123   */\n  0x01\n    /* \"#utility.yul\":1111:1124   */\n  add\n    /* \"#utility.yul\":1078:1159   */\n  jump(tag_19)\ntag_21:\n    /* \"#utility.yul\":1082:1085   */\n  pop\n  pop\n    /* \"#utility.yul\":748:1169   */\ntag_17:\n    /* \"#utility.yul\":657:1175   */\n  pop\n  pop\n  pop\n  jump\t// out\n    /* \"#utility.yul\":1351:2696   */\ntag_2:\n    /* \"#utility.yul\":1471:1481   */\n  dup2\n  mload\n  sub(shl(0x40, 0x01), 0x01)\n    /* \"#utility.yul\":1493:1523   */\n  dup2\n  gt\n    /* \"#utility.yul\":1490:1546   */\n  iszero\n  tag_25\n  jumpi\n    /* \"#utility.yul\":1526:1544   */\n  tag_25\n  tag_5\n  jump\t// in\ntag_25:\n    /* \"#utility.yul\":1555:1652   */\n  tag_26\n    /* \"#utility.yul\":1645:1651   */\n  dup2\n    /* \"#utility.yul\":1605:1643   */\n  tag_27\n    /* \"#utility.yul\":1637:1641   */\n  dup5\n    /* \"#utility.yul\":1631:1642   */\n  sload\n    /* \"#utility.yul\":1605:1643   */\n  tag_6\n  jump\t// in\ntag_27:\n    /* \"#utility.yul\":1599:1603   */\n  dup5\n    /* \"#utility.yul\":1555:1652   */\n  tag_8\n  jump\t// in\ntag_26:\n    /* \"#utility.yul\":1707:1711   */\n  0x20\n  dup1\n    /* \"#utility.yul\":1764:1766   */\n  0x1f\n    /* \"#utility.yul\":1753:1767   */\n  dup4\n  gt\n    /* \"#utility.yul\":1781:1782   */\n  0x01\n    /* \"#utility.yul\":1776:2439   */\n  dup2\n  eq\n  tag_29\n  jumpi\n    /* \"#utility.yul\":2483:2484   */\n  0x00\n    /* \"#utility.yul\":2500:2506   */\n  dup5\n    /* \"#utility.yul\":2497:2586   */\n  iszero\n  tag_30\n  jumpi\n  pop\n    /* \"#utility.yul\":2552:2571   */\n  dup6\n  dup4\n  add\n    /* \"#utility.yul\":2546:2572   */\n  mload\n    /* \"#utility.yul\":2497:2586   */\ntag_30:\n  not(0x00)\n    /* \"#utility.yul\":1308:1309   */\n  0x03\n    /* \"#utility.yul\":1304:1315   */\n  dup7\n  swap1\n  shl\n    /* \"#utility.yul\":1300:1324   */\n  shr\n    /* \"#utility.yul\":1296:1325   */\n  not\n    /* \"#utility.yul\":1286:1326   */\n  and\n    /* \"#utility.yul\":1332:1333   */\n  0x01\n    /* \"#utility.yul\":1328:1339   */\n  dup6\n  swap1\n  shl\n    /* \"#utility.yul\":1283:1340   */\n  or\n    /* \"#utility.yul\":2599:2680   */\n  dup6\n  sstore\n    /* \"#utility.yul\":1746:2690   */\n  jump(tag_28)\n    /* \"#utility.yul\":1776:2439   */\ntag_29:\n    /* \"#utility.yul\":604:605   */\n  0x00\n    /* \"#utility.yul\":597:611   */\n  dup6\n  dup2\n  mstore\n    /* \"#utility.yul\":641:645   */\n  0x20\n    /* \"#utility.yul\":628:646   */\n  dup2\n  keccak256\n  not(0x1f)\n    /* \"#utility.yul\":1812:1832   */\n  dup7\n  and\n  swap2\n    /* \"#utility.yul\":1930:2166   */\ntag_33:\n    /* \"#utility.yul\":1944:1951   */\n  dup3\n    /* \"#utility.yul\":1941:1942   */\n  dup2\n    /* \"#utility.yul\":1938:1952   */\n  lt\n    /* \"#utility.yul\":1930:2166   */\n  iszero\n  tag_35\n  jumpi\n    /* \"#utility.yul\":2033:2052   */\n  dup9\n  dup7\n  add\n    /* \"#utility.yul\":2027:2053   */\n  mload\n    /* \"#utility.yul\":2012:2054   */\n  dup3\n  sstore\n    /* \"#utility.yul\":2125:2152   */\n  swap5\n  dup5\n  add\n  swap5\n    /* \"#utility.yul\":2093:2094   */\n  0x01\n    /* \"#utility.yul\":2081:2095   */\n  swap1\n  swap2\n  add\n  swap1\n    /* \"#utility.yul\":1960:1979   */\n  dup5\n  add\n    /* \"#utility.yul\":1930:2166   */\n  jump(tag_33)\ntag_35:\n    /* \"#utility.yul\":1934:1937   */\n  pop\n    /* \"#utility.yul\":2194:2200   */\n  dup6\n    /* \"#utility.yul\":2185:2192   */\n  dup3\n    /* \"#utility.yul\":2182:2201   */\n  lt\n    /* \"#utility.yul\":2179:2380   */\n  iszero\n  tag_36\n  jumpi\n    /* \"#utility.yul\":2255:2274   */\n  dup8\n  dup6\n  add\n    /* \"#utility.yul\":2249:2275   */\n  mload\n  not(0x00)\n    /* \"#utility.yul\":2338:2339   */\n  0x03\n    /* \"#utility.yul\":2334:2348   */\n  dup9\n  swap1\n  shl\n    /* \"#utility.yul\":2350:2353   */\n  0xf8\n    /* \"#utility.yul\":2330:2354   */\n  and\n    /* \"#utility.yul\":2326:2363   */\n  shr\n    /* \"#utility.yul\":2322:2364   */\n  not\n    /* \"#utility.yul\":2307:2365   */\n  and\n    /* \"#utility.yul\":2292:2366   */\n  dup2\n  sstore\n    /* \"#utility.yul\":2179:2380   */\ntag_36:\n  pop\n  pop\n    /* \"#utility.yul\":2426:2427   */\n  0x01\n    /* \"#utility.yul\":2417:2423   */\n  dup5\n    /* \"#utility.yul\":2414:2415   */\n  0x01\n    /* \"#utility.yul\":2410:2424   */\n  shl\n    /* \"#utility.yul\":2406:2428   */\n  add\n    /* \"#utility.yul\":2400:2404   */\n  dup6\n    /* \"#utility.yul\":2393:2429   */\n  sstore\n    /* \"#utility.yul\":1746:2690   */\ntag_28:\n  pop\n  pop\n  pop\n  pop\n    /* \"#utility.yul\":1351:2696   */\n  pop\n  pop\n  jump\t// out\ntag_10:\n    /* \"Blockchain/function/l6_func_pure_view_payable_fallback.sol\":62:3842  contract Demo{... */\n  dataSize(sub_0)\n  dup1\n  dataOffset(sub_0)\n  0x00\n  codecopy\n  0x00\n  return\nstop\n\nsub_0: assembly {\n        /* \"Blockchain/function/l6_func_pure_view_payable_fallback.sol\":62:3842  contract Demo{... */\n      mstore(0x40, 0x80)\n      jumpi(tag_1, lt(calldatasize, 0x04))\n      shr(0xe0, calldataload(0x00))\n      dup1\n      0x12065fe0\n      eq\n      tag_3\n      jumpi\n      dup1\n      0x1b9265b8\n      eq\n      tag_4\n      jumpi\n      dup1\n      0x368b8772\n      eq\n      tag_5\n      jumpi\n      dup1\n      0xb69ef8a8\n      eq\n      tag_6\n      jumpi\n      dup1\n      0xce6d41de\n      eq\n      tag_7\n      jumpi\n      dup1\n      0xe7ee6ad6\n      eq\n      tag_8\n      jumpi\n      stop\n    tag_1:\n      jumpi(tag_2, calldatasize)\n      stop\n    tag_2:\n      stop\n        /* \"Blockchain/function/l6_func_pure_view_payable_fallback.sol\":2920:3270  function getBalance() public view returns(uint balance) {... */\n    tag_3:\n      callvalue\n      dup1\n      iszero\n      tag_13\n      jumpi\n      0x00\n      dup1\n      revert\n    tag_13:\n      pop\n        /* \"Blockchain/function/l6_func_pure_view_payable_fallback.sol\":2997:3018  address(this).balance */\n      selfbalance\n        /* \"Blockchain/function/l6_func_pure_view_payable_fallback.sol\":2920:3270  function getBalance() public view returns(uint balance) {... */\n    tag_14:\n      mload(0x40)\n        /* \"#utility.yul\":160:185   */\n      swap1\n      dup2\n      mstore\n        /* \"#utility.yul\":148:150   */\n      0x20\n        /* \"#utility.yul\":133:151   */\n      add\n        /* \"Blockchain/function/l6_func_pure_view_payable_fallback.sol\":2920:3270  function getBalance() public view returns(uint balance) {... */\n    tag_16:\n      mload(0x40)\n      dup1\n      swap2\n      sub\n      swap1\n      return\n        /* \"Blockchain/function/l6_func_pure_view_payable_fallback.sol\":2168:2392  function pay() external payable {... */\n    tag_4:\n      tag_2\n      tag_19\n      jump\t// in\n        /* \"Blockchain/function/l6_func_pure_view_payable_fallback.sol\":2571:2900  function setMessage(string memory newMessage) external  {       // newMessage - временная переменная, которую мы записываем... */\n    tag_5:\n      callvalue\n      dup1\n      iszero\n      tag_20\n      jumpi\n      0x00\n      dup1\n      revert\n    tag_20:\n      pop\n      tag_2\n      tag_22\n      calldatasize\n      0x04\n      tag_23\n      jump\t// in\n    tag_22:\n      tag_24\n      jump\t// in\n        /* \"Blockchain/function/l6_func_pure_view_payable_fallback.sol\":1510:1529  uint public balance */\n    tag_6:\n      callvalue\n      dup1\n      iszero\n      tag_25\n      jumpi\n      0x00\n      dup1\n      revert\n    tag_25:\n      pop\n      tag_14\n      sload(0x01)\n      dup2\n      jump\n        /* \"Blockchain/function/l6_func_pure_view_payable_fallback.sol\":3278:3374  function getMessage() external view returns(string memory){     ... */\n    tag_7:\n      callvalue\n      dup1\n      iszero\n      tag_29\n      jumpi\n      0x00\n      dup1\n      revert\n    tag_29:\n      pop\n      tag_30\n      tag_31\n      jump\t// in\n    tag_30:\n      mload(0x40)\n      tag_16\n      swap2\n      swap1\n      tag_33\n      jump\t// in\n        /* \"Blockchain/function/l6_func_pure_view_payable_fallback.sol\":3382:3703  function rate(uint amount) public pure returns (uint){          // обычно pure используют для служебных функций, где... */\n    tag_8:\n      callvalue\n      dup1\n      iszero\n      tag_34\n      jumpi\n      0x00\n      dup1\n      revert\n    tag_34:\n      pop\n      tag_14\n      tag_36\n      calldatasize\n      0x04\n      tag_37\n      jump\t// in\n    tag_36:\n      tag_38\n      jump\t// in\n        /* \"Blockchain/function/l6_func_pure_view_payable_fallback.sol\":2168:2392  function pay() external payable {... */\n    tag_19:\n        /* \"Blockchain/function/l6_func_pure_view_payable_fallback.sol\":2222:2231  msg.value */\n      callvalue\n        /* \"Blockchain/function/l6_func_pure_view_payable_fallback.sol\":2211:2218  balance */\n      0x01\n      0x00\n        /* \"Blockchain/function/l6_func_pure_view_payable_fallback.sol\":2211:2231  balance += msg.value */\n      dup3\n      dup3\n      sload\n      tag_42\n      swap2\n      swap1\n      tag_43\n      jump\t// in\n    tag_42:\n      swap1\n      swap2\n      sstore\n      pop\n      pop\n        /* \"Blockchain/function/l6_func_pure_view_payable_fallback.sol\":2168:2392  function pay() external payable {... */\n      jump\t// out\n        /* \"Blockchain/function/l6_func_pure_view_payable_fallback.sol\":2571:2900  function setMessage(string memory newMessage) external  {       // newMessage - временная переменная, которую мы записываем... */\n    tag_24:\n        /* \"Blockchain/function/l6_func_pure_view_payable_fallback.sol\":2742:2749  message */\n      0x00\n        /* \"Blockchain/function/l6_func_pure_view_payable_fallback.sol\":2742:2762  message = newMessage */\n      tag_45\n        /* \"Blockchain/function/l6_func_pure_view_payable_fallback.sol\":2752:2762  newMessage */\n      dup3\n        /* \"Blockchain/function/l6_func_pure_view_payable_fallback.sol\":2742:2749  message */\n      dup3\n        /* \"Blockchain/function/l6_func_pure_view_payable_fallback.sol\":2742:2762  message = newMessage */\n      tag_46\n      jump\t// in\n    tag_45:\n      pop\n        /* \"Blockchain/function/l6_func_pure_view_payable_fallback.sol\":2571:2900  function setMessage(string memory newMessage) external  {       // newMessage - временная переменная, которую мы записываем... */\n      pop\n      jump\t// out\n        /* \"Blockchain/function/l6_func_pure_view_payable_fallback.sol\":3278:3374  function getMessage() external view returns(string memory){     ... */\n    tag_31:\n        /* \"Blockchain/function/l6_func_pure_view_payable_fallback.sol\":3322:3335  string memory */\n      0x60\n        /* \"Blockchain/function/l6_func_pure_view_payable_fallback.sol\":3359:3366  message */\n      0x00\n        /* \"Blockchain/function/l6_func_pure_view_payable_fallback.sol\":3352:3366  return message */\n      dup1\n      sload\n      tag_48\n      swap1\n      tag_49\n      jump\t// in\n    tag_48:\n      dup1\n      0x1f\n      add\n      0x20\n      dup1\n      swap2\n      div\n      mul\n      0x20\n      add\n      mload(0x40)\n      swap1\n      dup2\n      add\n      0x40\n      mstore\n      dup1\n      swap3\n      swap2\n      swap1\n      dup2\n      dup2\n      mstore\n      0x20\n      add\n      dup3\n      dup1\n      sload\n      tag_50\n      swap1\n      tag_49\n      jump\t// in\n    tag_50:\n      dup1\n      iszero\n      tag_51\n      jumpi\n      dup1\n      0x1f\n      lt\n      tag_52\n      jumpi\n      0x0100\n      dup1\n      dup4\n      sload\n      div\n      mul\n      dup4\n      mstore\n      swap2\n      0x20\n      add\n      swap2\n      jump(tag_51)\n    tag_52:\n      dup3\n      add\n      swap2\n      swap1\n      0x00\n      mstore\n      keccak256(0x00, 0x20)\n      swap1\n    tag_53:\n      dup2\n      sload\n      dup2\n      mstore\n      swap1\n      0x01\n      add\n      swap1\n      0x20\n      add\n      dup1\n      dup4\n      gt\n      tag_53\n      jumpi\n      dup3\n      swap1\n      sub\n      0x1f\n      and\n      dup3\n      add\n      swap2\n    tag_51:\n      pop\n      pop\n      pop\n      pop\n      pop\n      swap1\n      pop\n        /* \"Blockchain/function/l6_func_pure_view_payable_fallback.sol\":3278:3374  function getMessage() external view returns(string memory){     ... */\n      swap1\n      jump\t// out\n        /* \"Blockchain/function/l6_func_pure_view_payable_fallback.sol\":3382:3703  function rate(uint amount) public pure returns (uint){          // обычно pure используют для служебных функций, где... */\n    tag_38:\n        /* \"Blockchain/function/l6_func_pure_view_payable_fallback.sol\":3430:3434  uint */\n      0x00\n        /* \"Blockchain/function/l6_func_pure_view_payable_fallback.sol\":3553:3563  amount * 3 */\n      tag_55\n        /* \"Blockchain/function/l6_func_pure_view_payable_fallback.sol\":3553:3559  amount */\n      dup3\n        /* \"Blockchain/function/l6_func_pure_view_payable_fallback.sol\":3562:3563  3 */\n      0x03\n        /* \"Blockchain/function/l6_func_pure_view_payable_fallback.sol\":3553:3563  amount * 3 */\n      tag_56\n      jump\t// in\n    tag_55:\n        /* \"Blockchain/function/l6_func_pure_view_payable_fallback.sol\":3546:3563  return amount * 3 */\n      swap3\n        /* \"Blockchain/function/l6_func_pure_view_payable_fallback.sol\":3382:3703  function rate(uint amount) public pure returns (uint){          // обычно pure используют для служебных функций, где... */\n      swap2\n      pop\n      pop\n      jump\t// out\n        /* \"#utility.yul\":196:323   */\n    tag_57:\n        /* \"#utility.yul\":257:267   */\n      0x4e487b71\n        /* \"#utility.yul\":252:255   */\n      0xe0\n        /* \"#utility.yul\":248:268   */\n      shl\n        /* \"#utility.yul\":245:246   */\n      0x00\n        /* \"#utility.yul\":238:269   */\n      mstore\n        /* \"#utility.yul\":288:292   */\n      0x41\n        /* \"#utility.yul\":285:286   */\n      0x04\n        /* \"#utility.yul\":278:293   */\n      mstore\n        /* \"#utility.yul\":312:316   */\n      0x24\n        /* \"#utility.yul\":309:310   */\n      0x00\n        /* \"#utility.yul\":302:317   */\n      revert\n        /* \"#utility.yul\":328:1250   */\n    tag_23:\n        /* \"#utility.yul\":397:403   */\n      0x00\n        /* \"#utility.yul\":450:452   */\n      0x20\n        /* \"#utility.yul\":438:447   */\n      dup3\n        /* \"#utility.yul\":429:436   */\n      dup5\n        /* \"#utility.yul\":425:448   */\n      sub\n        /* \"#utility.yul\":421:453   */\n      slt\n        /* \"#utility.yul\":418:470   */\n      iszero\n      tag_66\n      jumpi\n        /* \"#utility.yul\":466:467   */\n      0x00\n        /* \"#utility.yul\":463:464   */\n      dup1\n        /* \"#utility.yul\":456:468   */\n      revert\n        /* \"#utility.yul\":418:470   */\n    tag_66:\n        /* \"#utility.yul\":506:515   */\n      dup2\n        /* \"#utility.yul\":493:516   */\n      calldataload\n        /* \"#utility.yul\":535:553   */\n      0xffffffffffffffff\n        /* \"#utility.yul\":576:578   */\n      dup1\n        /* \"#utility.yul\":568:574   */\n      dup3\n        /* \"#utility.yul\":565:579   */\n      gt\n        /* \"#utility.yul\":562:596   */\n      iszero\n      tag_67\n      jumpi\n        /* \"#utility.yul\":592:593   */\n      0x00\n        /* \"#utility.yul\":589:590   */\n      dup1\n        /* \"#utility.yul\":582:594   */\n      revert\n        /* \"#utility.yul\":562:596   */\n    tag_67:\n        /* \"#utility.yul\":630:636   */\n      dup2\n        /* \"#utility.yul\":619:628   */\n      dup5\n        /* \"#utility.yul\":615:637   */\n      add\n        /* \"#utility.yul\":605:637   */\n      swap2\n      pop\n        /* \"#utility.yul\":675:682   */\n      dup5\n        /* \"#utility.yul\":668:672   */\n      0x1f\n        /* \"#utility.yul\":664:666   */\n      dup4\n        /* \"#utility.yul\":660:673   */\n      add\n        /* \"#utility.yul\":656:683   */\n      slt\n        /* \"#utility.yul\":646:701   */\n      tag_68\n      jumpi\n        /* \"#utility.yul\":697:698   */\n      0x00\n        /* \"#utility.yul\":694:695   */\n      dup1\n        /* \"#utility.yul\":687:699   */\n      revert\n        /* \"#utility.yul\":646:701   */\n    tag_68:\n        /* \"#utility.yul\":733:735   */\n      dup2\n        /* \"#utility.yul\":720:736   */\n      calldataload\n        /* \"#utility.yul\":755:757   */\n      dup2\n        /* \"#utility.yul\":751:753   */\n      dup2\n        /* \"#utility.yul\":748:758   */\n      gt\n        /* \"#utility.yul\":745:781   */\n      iszero\n      tag_70\n      jumpi\n        /* \"#utility.yul\":761:779   */\n      tag_70\n      tag_57\n      jump\t// in\n    tag_70:\n        /* \"#utility.yul\":836:838   */\n      0x40\n        /* \"#utility.yul\":830:839   */\n      mload\n        /* \"#utility.yul\":804:806   */\n      0x1f\n        /* \"#utility.yul\":890:903   */\n      dup3\n      add\n      not(0x1f)\n        /* \"#utility.yul\":886:908   */\n      swap1\n      dup2\n      and\n        /* \"#utility.yul\":910:912   */\n      0x3f\n        /* \"#utility.yul\":882:913   */\n      add\n        /* \"#utility.yul\":878:918   */\n      and\n        /* \"#utility.yul\":866:919   */\n      dup2\n      add\n      swap1\n        /* \"#utility.yul\":934:952   */\n      dup4\n      dup3\n      gt\n        /* \"#utility.yul\":954:976   */\n      dup2\n      dup4\n      lt\n        /* \"#utility.yul\":931:977   */\n      or\n        /* \"#utility.yul\":928:1000   */\n      iszero\n      tag_72\n      jumpi\n        /* \"#utility.yul\":980:998   */\n      tag_72\n      tag_57\n      jump\t// in\n    tag_72:\n        /* \"#utility.yul\":1020:1030   */\n      dup2\n        /* \"#utility.yul\":1016:1018   */\n      0x40\n        /* \"#utility.yul\":1009:1031   */\n      mstore\n        /* \"#utility.yul\":1055:1057   */\n      dup3\n        /* \"#utility.yul\":1047:1053   */\n      dup2\n        /* \"#utility.yul\":1040:1058   */\n      mstore\n        /* \"#utility.yul\":1095:1102   */\n      dup8\n        /* \"#utility.yul\":1090:1092   */\n      0x20\n        /* \"#utility.yul\":1085:1087   */\n      dup5\n        /* \"#utility.yul\":1081:1083   */\n      dup8\n        /* \"#utility.yul\":1077:1088   */\n      add\n        /* \"#utility.yul\":1073:1093   */\n      add\n        /* \"#utility.yul\":1070:1103   */\n      gt\n        /* \"#utility.yul\":1067:1120   */\n      iszero\n      tag_73\n      jumpi\n        /* \"#utility.yul\":1116:1117   */\n      0x00\n        /* \"#utility.yul\":1113:1114   */\n      dup1\n        /* \"#utility.yul\":1106:1118   */\n      revert\n        /* \"#utility.yul\":1067:1120   */\n    tag_73:\n        /* \"#utility.yul\":1172:1174   */\n      dup3\n        /* \"#utility.yul\":1167:1169   */\n      0x20\n        /* \"#utility.yul\":1163:1165   */\n      dup7\n        /* \"#utility.yul\":1159:1170   */\n      add\n        /* \"#utility.yul\":1154:1156   */\n      0x20\n        /* \"#utility.yul\":1146:1152   */\n      dup4\n        /* \"#utility.yul\":1142:1157   */\n      add\n        /* \"#utility.yul\":1129:1175   */\n      calldatacopy\n        /* \"#utility.yul\":1217:1218   */\n      0x00\n        /* \"#utility.yul\":1195:1210   */\n      swap3\n      dup2\n      add\n        /* \"#utility.yul\":1212:1214   */\n      0x20\n        /* \"#utility.yul\":1191:1215   */\n      add\n        /* \"#utility.yul\":1184:1219   */\n      swap3\n      swap1\n      swap3\n      mstore\n      pop\n        /* \"#utility.yul\":1199:1205   */\n      swap6\n        /* \"#utility.yul\":328:1250   */\n      swap5\n      pop\n      pop\n      pop\n      pop\n      pop\n      jump\t// out\n        /* \"#utility.yul\":1255:1803   */\n    tag_33:\n        /* \"#utility.yul\":1367:1371   */\n      0x00\n        /* \"#utility.yul\":1396:1398   */\n      0x20\n        /* \"#utility.yul\":1425:1427   */\n      dup1\n        /* \"#utility.yul\":1414:1423   */\n      dup4\n        /* \"#utility.yul\":1407:1428   */\n      mstore\n        /* \"#utility.yul\":1457:1463   */\n      dup4\n        /* \"#utility.yul\":1451:1464   */\n      mload\n        /* \"#utility.yul\":1500:1506   */\n      dup1\n        /* \"#utility.yul\":1495:1497   */\n      0x20\n        /* \"#utility.yul\":1484:1493   */\n      dup6\n        /* \"#utility.yul\":1480:1498   */\n      add\n        /* \"#utility.yul\":1473:1507   */\n      mstore\n        /* \"#utility.yul\":1525:1526   */\n      0x00\n        /* \"#utility.yul\":1535:1675   */\n    tag_75:\n        /* \"#utility.yul\":1549:1555   */\n      dup2\n        /* \"#utility.yul\":1546:1547   */\n      dup2\n        /* \"#utility.yul\":1543:1556   */\n      lt\n        /* \"#utility.yul\":1535:1675   */\n      iszero\n      tag_77\n      jumpi\n        /* \"#utility.yul\":1644:1658   */\n      dup6\n      dup2\n      add\n        /* \"#utility.yul\":1640:1663   */\n      dup4\n      add\n        /* \"#utility.yul\":1634:1664   */\n      mload\n        /* \"#utility.yul\":1610:1627   */\n      dup6\n      dup3\n      add\n        /* \"#utility.yul\":1629:1631   */\n      0x40\n        /* \"#utility.yul\":1606:1632   */\n      add\n        /* \"#utility.yul\":1599:1665   */\n      mstore\n        /* \"#utility.yul\":1564:1574   */\n      dup3\n      add\n        /* \"#utility.yul\":1535:1675   */\n      jump(tag_75)\n    tag_77:\n        /* \"#utility.yul\":1539:1542   */\n      pop\n        /* \"#utility.yul\":1724:1725   */\n      0x00\n        /* \"#utility.yul\":1719:1721   */\n      0x40\n        /* \"#utility.yul\":1710:1716   */\n      dup3\n        /* \"#utility.yul\":1699:1708   */\n      dup7\n        /* \"#utility.yul\":1695:1717   */\n      add\n        /* \"#utility.yul\":1691:1722   */\n      add\n        /* \"#utility.yul\":1684:1726   */\n      mstore\n        /* \"#utility.yul\":1794:1796   */\n      0x40\n        /* \"#utility.yul\":1787:1789   */\n      0x1f\n        /* \"#utility.yul\":1783:1790   */\n      not\n        /* \"#utility.yul\":1778:1780   */\n      0x1f\n        /* \"#utility.yul\":1770:1776   */\n      dup4\n        /* \"#utility.yul\":1766:1781   */\n      add\n        /* \"#utility.yul\":1762:1791   */\n      and\n        /* \"#utility.yul\":1751:1760   */\n      dup6\n        /* \"#utility.yul\":1747:1792   */\n      add\n        /* \"#utility.yul\":1743:1797   */\n      add\n        /* \"#utility.yul\":1735:1797   */\n      swap3\n      pop\n      pop\n      pop\n        /* \"#utility.yul\":1255:1803   */\n      swap3\n      swap2\n      pop\n      pop\n      jump\t// out\n        /* \"#utility.yul\":1808:1988   */\n    tag_37:\n        /* \"#utility.yul\":1867:1873   */\n      0x00\n        /* \"#utility.yul\":1920:1922   */\n      0x20\n        /* \"#utility.yul\":1908:1917   */\n      dup3\n        /* \"#utility.yul\":1899:1906   */\n      dup5\n        /* \"#utility.yul\":1895:1918   */\n      sub\n        /* \"#utility.yul\":1891:1923   */\n      slt\n        /* \"#utility.yul\":1888:1940   */\n      iszero\n      tag_79\n      jumpi\n        /* \"#utility.yul\":1936:1937   */\n      0x00\n        /* \"#utility.yul\":1933:1934   */\n      dup1\n        /* \"#utility.yul\":1926:1938   */\n      revert\n        /* \"#utility.yul\":1888:1940   */\n    tag_79:\n      pop\n        /* \"#utility.yul\":1959:1982   */\n      calldataload\n      swap2\n        /* \"#utility.yul\":1808:1988   */\n      swap1\n      pop\n      jump\t// out\n        /* \"#utility.yul\":1993:2120   */\n    tag_58:\n        /* \"#utility.yul\":2054:2064   */\n      0x4e487b71\n        /* \"#utility.yul\":2049:2052   */\n      0xe0\n        /* \"#utility.yul\":2045:2065   */\n      shl\n        /* \"#utility.yul\":2042:2043   */\n      0x00\n        /* \"#utility.yul\":2035:2066   */\n      mstore\n        /* \"#utility.yul\":2085:2089   */\n      0x11\n        /* \"#utility.yul\":2082:2083   */\n      0x04\n        /* \"#utility.yul\":2075:2090   */\n      mstore\n        /* \"#utility.yul\":2109:2113   */\n      0x24\n        /* \"#utility.yul\":2106:2107   */\n      0x00\n        /* \"#utility.yul\":2099:2114   */\n      revert\n        /* \"#utility.yul\":2125:2250   */\n    tag_43:\n        /* \"#utility.yul\":2190:2199   */\n      dup1\n      dup3\n      add\n        /* \"#utility.yul\":2211:2221   */\n      dup1\n      dup3\n      gt\n        /* \"#utility.yul\":2208:2244   */\n      iszero\n      tag_55\n      jumpi\n        /* \"#utility.yul\":2224:2242   */\n      tag_55\n      tag_58\n      jump\t// in\n        /* \"#utility.yul\":2255:2635   */\n    tag_49:\n        /* \"#utility.yul\":2334:2335   */\n      0x01\n        /* \"#utility.yul\":2330:2342   */\n      dup2\n      dup2\n      shr\n      swap1\n        /* \"#utility.yul\":2377:2389   */\n      dup3\n      and\n      dup1\n        /* \"#utility.yul\":2398:2459   */\n      tag_85\n      jumpi\n        /* \"#utility.yul\":2452:2456   */\n      0x7f\n        /* \"#utility.yul\":2444:2450   */\n      dup3\n        /* \"#utility.yul\":2440:2457   */\n      and\n        /* \"#utility.yul\":2430:2457   */\n      swap2\n      pop\n        /* \"#utility.yul\":2398:2459   */\n    tag_85:\n        /* \"#utility.yul\":2505:2507   */\n      0x20\n        /* \"#utility.yul\":2497:2503   */\n      dup3\n        /* \"#utility.yul\":2494:2508   */\n      lt\n        /* \"#utility.yul\":2474:2492   */\n      dup2\n        /* \"#utility.yul\":2471:2509   */\n      sub\n        /* \"#utility.yul\":2468:2629   */\n      tag_86\n      jumpi\n        /* \"#utility.yul\":2551:2561   */\n      0x4e487b71\n        /* \"#utility.yul\":2546:2549   */\n      0xe0\n        /* \"#utility.yul\":2542:2562   */\n      shl\n        /* \"#utility.yul\":2539:2540   */\n      0x00\n        /* \"#utility.yul\":2532:2563   */\n      mstore\n        /* \"#utility.yul\":2586:2590   */\n      0x22\n        /* \"#utility.yul\":2583:2584   */\n      0x04\n        /* \"#utility.yul\":2576:2591   */\n      mstore\n        /* \"#utility.yul\":2614:2618   */\n      0x24\n        /* \"#utility.yul\":2611:2612   */\n      0x00\n        /* \"#utility.yul\":2604:2619   */\n      revert\n        /* \"#utility.yul\":2468:2629   */\n    tag_86:\n      pop\n        /* \"#utility.yul\":2255:2635   */\n      swap2\n      swap1\n      pop\n      jump\t// out\n        /* \"#utility.yul\":2766:3284   */\n    tag_60:\n        /* \"#utility.yul\":2868:2870   */\n      0x1f\n        /* \"#utility.yul\":2863:2866   */\n      dup3\n        /* \"#utility.yul\":2860:2871   */\n      gt\n        /* \"#utility.yul\":2857:3278   */\n      iszero\n      tag_89\n      jumpi\n        /* \"#utility.yul\":2904:2909   */\n      dup1\n        /* \"#utility.yul\":2901:2902   */\n      0x00\n        /* \"#utility.yul\":2894:2910   */\n      mstore\n        /* \"#utility.yul\":2948:2952   */\n      0x20\n        /* \"#utility.yul\":2945:2946   */\n      0x00\n        /* \"#utility.yul\":2935:2953   */\n      keccak256\n        /* \"#utility.yul\":3018:3020   */\n      0x1f\n        /* \"#utility.yul\":3006:3016   */\n      dup5\n        /* \"#utility.yul\":3002:3021   */\n      add\n        /* \"#utility.yul\":2999:3000   */\n      0x05\n        /* \"#utility.yul\":2995:3022   */\n      shr\n        /* \"#utility.yul\":2989:2993   */\n      dup2\n        /* \"#utility.yul\":2985:3023   */\n      add\n        /* \"#utility.yul\":3054:3058   */\n      0x20\n        /* \"#utility.yul\":3042:3052   */\n      dup6\n        /* \"#utility.yul\":3039:3059   */\n      lt\n        /* \"#utility.yul\":3036:3083   */\n      iszero\n      tag_90\n      jumpi\n      pop\n        /* \"#utility.yul\":3077:3081   */\n      dup1\n        /* \"#utility.yul\":3036:3083   */\n    tag_90:\n        /* \"#utility.yul\":3132:3134   */\n      0x1f\n        /* \"#utility.yul\":3127:3130   */\n      dup5\n        /* \"#utility.yul\":3123:3135   */\n      add\n        /* \"#utility.yul\":3120:3121   */\n      0x05\n        /* \"#utility.yul\":3116:3136   */\n      shr\n        /* \"#utility.yul\":3110:3114   */\n      dup3\n        /* \"#utility.yul\":3106:3137   */\n      add\n        /* \"#utility.yul\":3096:3137   */\n      swap2\n      pop\n        /* \"#utility.yul\":3187:3268   */\n    tag_91:\n        /* \"#utility.yul\":3205:3207   */\n      dup2\n        /* \"#utility.yul\":3198:3203   */\n      dup2\n        /* \"#utility.yul\":3195:3208   */\n      lt\n        /* \"#utility.yul\":3187:3268   */\n      iszero\n      tag_93\n      jumpi\n        /* \"#utility.yul\":3264:3265   */\n      0x00\n        /* \"#utility.yul\":3250:3266   */\n      dup2\n      sstore\n        /* \"#utility.yul\":3231:3232   */\n      0x01\n        /* \"#utility.yul\":3220:3233   */\n      add\n        /* \"#utility.yul\":3187:3268   */\n      jump(tag_91)\n    tag_93:\n        /* \"#utility.yul\":3191:3194   */\n      pop\n      pop\n        /* \"#utility.yul\":2857:3278   */\n    tag_89:\n        /* \"#utility.yul\":2766:3284   */\n      pop\n      pop\n      pop\n      jump\t// out\n        /* \"#utility.yul\":3460:4805   */\n    tag_46:\n        /* \"#utility.yul\":3586:3589   */\n      dup2\n        /* \"#utility.yul\":3580:3590   */\n      mload\n        /* \"#utility.yul\":3613:3631   */\n      0xffffffffffffffff\n        /* \"#utility.yul\":3605:3611   */\n      dup2\n        /* \"#utility.yul\":3602:3632   */\n      gt\n        /* \"#utility.yul\":3599:3655   */\n      iszero\n      tag_97\n      jumpi\n        /* \"#utility.yul\":3635:3653   */\n      tag_97\n      tag_57\n      jump\t// in\n    tag_97:\n        /* \"#utility.yul\":3664:3761   */\n      tag_98\n        /* \"#utility.yul\":3754:3760   */\n      dup2\n        /* \"#utility.yul\":3714:3752   */\n      tag_99\n        /* \"#utility.yul\":3746:3750   */\n      dup5\n        /* \"#utility.yul\":3740:3751   */\n      sload\n        /* \"#utility.yul\":3714:3752   */\n      tag_49\n      jump\t// in\n    tag_99:\n        /* \"#utility.yul\":3708:3712   */\n      dup5\n        /* \"#utility.yul\":3664:3761   */\n      tag_60\n      jump\t// in\n    tag_98:\n        /* \"#utility.yul\":3816:3820   */\n      0x20\n      dup1\n        /* \"#utility.yul\":3873:3875   */\n      0x1f\n        /* \"#utility.yul\":3862:3876   */\n      dup4\n      gt\n        /* \"#utility.yul\":3890:3891   */\n      0x01\n        /* \"#utility.yul\":3885:4548   */\n      dup2\n      eq\n      tag_101\n      jumpi\n        /* \"#utility.yul\":4592:4593   */\n      0x00\n        /* \"#utility.yul\":4609:4615   */\n      dup5\n        /* \"#utility.yul\":4606:4695   */\n      iszero\n      tag_102\n      jumpi\n      pop\n        /* \"#utility.yul\":4661:4680   */\n      dup6\n      dup4\n      add\n        /* \"#utility.yul\":4655:4681   */\n      mload\n        /* \"#utility.yul\":4606:4695   */\n    tag_102:\n      not(0x00)\n        /* \"#utility.yul\":3417:3418   */\n      0x03\n        /* \"#utility.yul\":3413:3424   */\n      dup7\n      swap1\n      shl\n        /* \"#utility.yul\":3409:3433   */\n      shr\n        /* \"#utility.yul\":3405:3434   */\n      not\n        /* \"#utility.yul\":3395:3435   */\n      and\n        /* \"#utility.yul\":3441:3442   */\n      0x01\n        /* \"#utility.yul\":3437:3448   */\n      dup6\n      swap1\n      shl\n        /* \"#utility.yul\":3392:3449   */\n      or\n        /* \"#utility.yul\":4708:4789   */\n      dup6\n      sstore\n        /* \"#utility.yul\":3855:4799   */\n      jump(tag_100)\n        /* \"#utility.yul\":3885:4548   */\n    tag_101:\n        /* \"#utility.yul\":2713:2714   */\n      0x00\n        /* \"#utility.yul\":2706:2720   */\n      dup6\n      dup2\n      mstore\n        /* \"#utility.yul\":2750:2754   */\n      0x20\n        /* \"#utility.yul\":2737:2755   */\n      dup2\n      keccak256\n      not(0x1f)\n        /* \"#utility.yul\":3921:3941   */\n      dup7\n      and\n      swap2\n        /* \"#utility.yul\":4039:4275   */\n    tag_105:\n        /* \"#utility.yul\":4053:4060   */\n      dup3\n        /* \"#utility.yul\":4050:4051   */\n      dup2\n        /* \"#utility.yul\":4047:4061   */\n      lt\n        /* \"#utility.yul\":4039:4275   */\n      iszero\n      tag_107\n      jumpi\n        /* \"#utility.yul\":4142:4161   */\n      dup9\n      dup7\n      add\n        /* \"#utility.yul\":4136:4162   */\n      mload\n        /* \"#utility.yul\":4121:4163   */\n      dup3\n      sstore\n        /* \"#utility.yul\":4234:4261   */\n      swap5\n      dup5\n      add\n      swap5\n        /* \"#utility.yul\":4202:4203   */\n      0x01\n        /* \"#utility.yul\":4190:4204   */\n      swap1\n      swap2\n      add\n      swap1\n        /* \"#utility.yul\":4069:4088   */\n      dup5\n      add\n        /* \"#utility.yul\":4039:4275   */\n      jump(tag_105)\n    tag_107:\n        /* \"#utility.yul\":4043:4046   */\n      pop\n        /* \"#utility.yul\":4303:4309   */\n      dup6\n        /* \"#utility.yul\":4294:4301   */\n      dup3\n        /* \"#utility.yul\":4291:4310   */\n      lt\n        /* \"#utility.yul\":4288:4489   */\n      iszero\n      tag_108\n      jumpi\n        /* \"#utility.yul\":4364:4383   */\n      dup8\n      dup6\n      add\n        /* \"#utility.yul\":4358:4384   */\n      mload\n      not(0x00)\n        /* \"#utility.yul\":4447:4448   */\n      0x03\n        /* \"#utility.yul\":4443:4457   */\n      dup9\n      swap1\n      shl\n        /* \"#utility.yul\":4459:4462   */\n      0xf8\n        /* \"#utility.yul\":4439:4463   */\n      and\n        /* \"#utility.yul\":4435:4472   */\n      shr\n        /* \"#utility.yul\":4431:4473   */\n      not\n        /* \"#utility.yul\":4416:4474   */\n      and\n        /* \"#utility.yul\":4401:4475   */\n      dup2\n      sstore\n        /* \"#utility.yul\":4288:4489   */\n    tag_108:\n      pop\n      pop\n        /* \"#utility.yul\":4535:4536   */\n      0x01\n        /* \"#utility.yul\":4526:4532   */\n      dup5\n        /* \"#utility.yul\":4523:4524   */\n      0x01\n        /* \"#utility.yul\":4519:4533   */\n      shl\n        /* \"#utility.yul\":4515:4537   */\n      add\n        /* \"#utility.yul\":4509:4513   */\n      dup6\n        /* \"#utility.yul\":4502:4538   */\n      sstore\n        /* \"#utility.yul\":3855:4799   */\n    tag_100:\n      pop\n      pop\n      pop\n      pop\n        /* \"#utility.yul\":3460:4805   */\n      pop\n      pop\n      jump\t// out\n        /* \"#utility.yul\":4810:4978   */\n    tag_56:\n        /* \"#utility.yul\":4883:4892   */\n      dup1\n      dup3\n      mul\n        /* \"#utility.yul\":4914:4923   */\n      dup2\n      iszero\n        /* \"#utility.yul\":4931:4946   */\n      dup3\n      dup3\n      div\n        /* \"#utility.yul\":4925:4947   */\n      dup5\n      eq\n        /* \"#utility.yul\":4911:4948   */\n      or\n        /* \"#utility.yul\":4901:4972   */\n      tag_55\n      jumpi\n        /* \"#utility.yul\":4952:4970   */\n      tag_55\n      tag_58\n      jump\t// in\n\n    auxdata: 0xa264697066735822122097dfe647cc44840f9da4a6de6e26f879017bef4162a7a5eb21465bfb4db8a3a464736f6c63430008160033\n}\n",
				"bytecode": {
					"linkReferences": {},
					"object": "60c0604052600660809081526548656c6c6f2160d01b60a0525f9061002490826100ce565b50348015610030575f80fd5b5061018d565b634e487b7160e01b5f52604160045260245ffd5b600181811c9082168061005e57607f821691505b60208210810361007c57634e487b7160e01b5f52602260045260245ffd5b50919050565b601f8211156100c957805f5260205f20601f840160051c810160208510156100a75750805b601f840160051c820191505b818110156100c6575f81556001016100b3565b50505b505050565b81516001600160401b038111156100e7576100e7610036565b6100fb816100f5845461004a565b84610082565b602080601f83116001811461012e575f84156101175750858301515b5f19600386901b1c1916600185901b178555610185565b5f85815260208120601f198616915b8281101561015c5788860151825594840194600190910190840161013d565b508582101561017957878501515f19600388901b60f8161c191681555b505060018460011b0185555b505050505050565b61049d8061019a5f395ff3fe608060405260043610610055575f3560e01c806312065fe01461005e5780631b9265b81461007f578063368b877214610087578063b69ef8a8146100a6578063ce6d41de146100bb578063e7ee6ad6146100dc57005b3661005c57005b005b348015610069575f80fd5b50475b6040519081526020015b60405180910390f35b61005c6100fb565b348015610092575f80fd5b5061005c6100a13660046101d7565b610113565b3480156100b1575f80fd5b5061006c60015481565b3480156100c6575f80fd5b506100cf610122565b6040516100769190610282565b3480156100e7575f80fd5b5061006c6100f63660046102ce565b6101b1565b3460015f82825461010c91906102f9565b9091555050565b5f61011e8282610390565b5050565b60605f80546101309061030c565b80601f016020809104026020016040519081016040528092919081815260200182805461015c9061030c565b80156101a75780601f1061017e576101008083540402835291602001916101a7565b820191905f5260205f20905b81548152906001019060200180831161018a57829003601f168201915b5050505050905090565b5f6101bd826003610450565b92915050565b634e487b7160e01b5f52604160045260245ffd5b5f602082840312156101e7575f80fd5b813567ffffffffffffffff808211156101fe575f80fd5b818401915084601f830112610211575f80fd5b813581811115610223576102236101c3565b604051601f8201601f19908116603f0116810190838211818310171561024b5761024b6101c3565b81604052828152876020848701011115610263575f80fd5b826020860160208301375f928101602001929092525095945050505050565b5f602080835283518060208501525f5b818110156102ae57858101830151858201604001528201610292565b505f604082860101526040601f19601f8301168501019250505092915050565b5f602082840312156102de575f80fd5b5035919050565b634e487b7160e01b5f52601160045260245ffd5b808201808211156101bd576101bd6102e5565b600181811c9082168061032057607f821691505b60208210810361033e57634e487b7160e01b5f52602260045260245ffd5b50919050565b601f82111561038b57805f5260205f20601f840160051c810160208510156103695750805b601f840160051c820191505b81811015610388575f8155600101610375565b50505b505050565b815167ffffffffffffffff8111156103aa576103aa6101c3565b6103be816103b8845461030c565b84610344565b602080601f8311600181146103f1575f84156103da5750858301515b5f19600386901b1c1916600185901b178555610448565b5f85815260208120601f198616915b8281101561041f57888601518255948401946001909101908401610400565b508582101561043c57878501515f19600388901b60f8161c191681555b505060018460011b0185555b505050505050565b80820281158282048414176101bd576101bd6102e556fea264697066735822122097dfe647cc44840f9da4a6de6e26f879017bef4162a7a5eb21465bfb4db8a3a464736f6c63430008160033",
					"opcodes": "PUSH1 0xC0 PUSH1 0x40 MSTORE PUSH1 0x6 PUSH1 0x80 SWAP1 DUP2 MSTORE PUSH6 0x48656C6C6F21 PUSH1 0xD0 SHL PUSH1 0xA0 MSTORE PUSH0 SWAP1 PUSH2 0x24 SWAP1 DUP3 PUSH2 0xCE JUMP JUMPDEST POP CALLVALUE DUP1 ISZERO PUSH2 0x30 JUMPI PUSH0 DUP1 REVERT JUMPDEST POP PUSH2 0x18D JUMP JUMPDEST PUSH4 0x4E487B71 PUSH1 0xE0 SHL PUSH0 MSTORE PUSH1 0x41 PUSH1 0x4 MSTORE PUSH1 0x24 PUSH0 REVERT JUMPDEST PUSH1 0x1 DUP2 DUP2 SHR SWAP1 DUP3 AND DUP1 PUSH2 0x5E JUMPI PUSH1 0x7F DUP3 AND SWAP2 POP JUMPDEST PUSH1 0x20 DUP3 LT DUP2 SUB PUSH2 0x7C JUMPI PUSH4 0x4E487B71 PUSH1 0xE0 SHL PUSH0 MSTORE PUSH1 0x22 PUSH1 0x4 MSTORE PUSH1 0x24 PUSH0 REVERT JUMPDEST POP SWAP2 SWAP1 POP JUMP JUMPDEST PUSH1 0x1F DUP3 GT ISZERO PUSH2 0xC9 JUMPI DUP1 PUSH0 MSTORE PUSH1 0x20 PUSH0 KECCAK256 PUSH1 0x1F DUP5 ADD PUSH1 0x5 SHR DUP2 ADD PUSH1 0x20 DUP6 LT ISZERO PUSH2 0xA7 JUMPI POP DUP1 JUMPDEST PUSH1 0x1F DUP5 ADD PUSH1 0x5 SHR DUP3 ADD SWAP2 POP JUMPDEST DUP2 DUP2 LT ISZERO PUSH2 0xC6 JUMPI PUSH0 DUP2 SSTORE PUSH1 0x1 ADD PUSH2 0xB3 JUMP JUMPDEST POP POP JUMPDEST POP POP POP JUMP JUMPDEST DUP2 MLOAD PUSH1 0x1 PUSH1 0x1 PUSH1 0x40 SHL SUB DUP2 GT ISZERO PUSH2 0xE7 JUMPI PUSH2 0xE7 PUSH2 0x36 JUMP JUMPDEST PUSH2 0xFB DUP2 PUSH2 0xF5 DUP5 SLOAD PUSH2 0x4A JUMP JUMPDEST DUP5 PUSH2 0x82 JUMP JUMPDEST PUSH1 0x20 DUP1 PUSH1 0x1F DUP4 GT PUSH1 0x1 DUP2 EQ PUSH2 0x12E JUMPI PUSH0 DUP5 ISZERO PUSH2 0x117 JUMPI POP DUP6 DUP4 ADD MLOAD JUMPDEST PUSH0 NOT PUSH1 0x3 DUP7 SWAP1 SHL SHR NOT AND PUSH1 0x1 DUP6 SWAP1 SHL OR DUP6 SSTORE PUSH2 0x185 JUMP JUMPDEST PUSH0 DUP6 DUP2 MSTORE PUSH1 0x20 DUP2 KECCAK256 PUSH1 0x1F NOT DUP7 AND SWAP2 JUMPDEST DUP3 DUP2 LT ISZERO PUSH2 0x15C JUMPI DUP9 DUP7 ADD MLOAD DUP3 SSTORE SWAP5 DUP5 ADD SWAP5 PUSH1 0x1 SWAP1 SWAP2 ADD SWAP1 DUP5 ADD PUSH2 0x13D JUMP JUMPDEST POP DUP6 DUP3 LT ISZERO PUSH2 0x179 JUMPI DUP8 DUP6 ADD MLOAD PUSH0 NOT PUSH1 0x3 DUP9 SWAP1 SHL PUSH1 0xF8 AND SHR NOT AND DUP2 SSTORE JUMPDEST POP POP PUSH1 0x1 DUP5 PUSH1 0x1 SHL ADD DUP6 SSTORE JUMPDEST POP POP POP POP POP POP JUMP JUMPDEST PUSH2 0x49D DUP1 PUSH2 0x19A PUSH0 CODECOPY PUSH0 RETURN INVALID PUSH1 0x80 PUSH1 0x40 MSTORE PUSH1 0x4 CALLDATASIZE LT PUSH2 0x55 JUMPI PUSH0 CALLDATALOAD PUSH1 0xE0 SHR DUP1 PUSH4 0x12065FE0 EQ PUSH2 0x5E JUMPI DUP1 PUSH4 0x1B9265B8 EQ PUSH2 0x7F JUMPI DUP1 PUSH4 0x368B8772 EQ PUSH2 0x87 JUMPI DUP1 PUSH4 0xB69EF8A8 EQ PUSH2 0xA6 JUMPI DUP1 PUSH4 0xCE6D41DE EQ PUSH2 0xBB JUMPI DUP1 PUSH4 0xE7EE6AD6 EQ PUSH2 0xDC JUMPI STOP JUMPDEST CALLDATASIZE PUSH2 0x5C JUMPI STOP JUMPDEST STOP JUMPDEST CALLVALUE DUP1 ISZERO PUSH2 0x69 JUMPI PUSH0 DUP1 REVERT JUMPDEST POP SELFBALANCE JUMPDEST PUSH1 0x40 MLOAD SWAP1 DUP2 MSTORE PUSH1 0x20 ADD JUMPDEST PUSH1 0x40 MLOAD DUP1 SWAP2 SUB SWAP1 RETURN JUMPDEST PUSH2 0x5C PUSH2 0xFB JUMP JUMPDEST CALLVALUE DUP1 ISZERO PUSH2 0x92 JUMPI PUSH0 DUP1 REVERT JUMPDEST POP PUSH2 0x5C PUSH2 0xA1 CALLDATASIZE PUSH1 0x4 PUSH2 0x1D7 JUMP JUMPDEST PUSH2 0x113 JUMP JUMPDEST CALLVALUE DUP1 ISZERO PUSH2 0xB1 JUMPI PUSH0 DUP1 REVERT JUMPDEST POP PUSH2 0x6C PUSH1 0x1 SLOAD DUP2 JUMP JUMPDEST CALLVALUE DUP1 ISZERO PUSH2 0xC6 JUMPI PUSH0 DUP1 REVERT JUMPDEST POP PUSH2 0xCF PUSH2 0x122 JUMP JUMPDEST PUSH1 0x40 MLOAD PUSH2 0x76 SWAP2 SWAP1 PUSH2 0x282 JUMP JUMPDEST CALLVALUE DUP1 ISZERO PUSH2 0xE7 JUMPI PUSH0 DUP1 REVERT JUMPDEST POP PUSH2 0x6C PUSH2 0xF6 CALLDATASIZE PUSH1 0x4 PUSH2 0x2CE JUMP JUMPDEST PUSH2 0x1B1 JUMP JUMPDEST CALLVALUE PUSH1 0x1 PUSH0 DUP3 DUP3 SLOAD PUSH2 0x10C SWAP2 SWAP1 PUSH2 0x2F9 JUMP JUMPDEST SWAP1 SWAP2 SSTORE POP POP JUMP JUMPDEST PUSH0 PUSH2 0x11E DUP3 DUP3 PUSH2 0x390 JUMP JUMPDEST POP POP JUMP JUMPDEST PUSH1 0x60 PUSH0 DUP1 SLOAD PUSH2 0x130 SWAP1 PUSH2 0x30C JUMP JUMPDEST DUP1 PUSH1 0x1F ADD PUSH1 0x20 DUP1 SWAP2 DIV MUL PUSH1 0x20 ADD PUSH1 0x40 MLOAD SWAP1 DUP2 ADD PUSH1 0x40 MSTORE DUP1 SWAP3 SWAP2 SWAP1 DUP2 DUP2 MSTORE PUSH1 0x20 ADD DUP3 DUP1 SLOAD PUSH2 0x15C SWAP1 PUSH2 0x30C JUMP JUMPDEST DUP1 ISZERO PUSH2 0x1A7 JUMPI DUP1 PUSH1 0x1F LT PUSH2 0x17E JUMPI PUSH2 0x100 DUP1 DUP4 SLOAD DIV MUL DUP4 MSTORE SWAP2 PUSH1 0x20 ADD SWAP2 PUSH2 0x1A7 JUMP JUMPDEST DUP3 ADD SWAP2 SWAP1 PUSH0 MSTORE PUSH1 0x20 PUSH0 KECCAK256 SWAP1 JUMPDEST DUP2 SLOAD DUP2 MSTORE SWAP1 PUSH1 0x1 ADD SWAP1 PUSH1 0x20 ADD DUP1 DUP4 GT PUSH2 0x18A JUMPI DUP3 SWAP1 SUB PUSH1 0x1F AND DUP3 ADD SWAP2 JUMPDEST POP POP POP POP POP SWAP1 POP SWAP1 JUMP JUMPDEST PUSH0 PUSH2 0x1BD DUP3 PUSH1 0x3 PUSH2 0x450 JUMP JUMPDEST SWAP3 SWAP2 POP POP JUMP JUMPDEST PUSH4 0x4E487B71 PUSH1 0xE0 SHL PUSH0 MSTORE PUSH1 0x41 PUSH1 0x4 MSTORE PUSH1 0x24 PUSH0 REVERT JUMPDEST PUSH0 PUSH1 0x20 DUP3 DUP5 SUB SLT ISZERO PUSH2 0x1E7 JUMPI PUSH0 DUP1 REVERT JUMPDEST DUP2 CALLDATALOAD PUSH8 0xFFFFFFFFFFFFFFFF DUP1 DUP3 GT ISZERO PUSH2 0x1FE JUMPI PUSH0 DUP1 REVERT JUMPDEST DUP2 DUP5 ADD SWAP2 POP DUP5 PUSH1 0x1F DUP4 ADD SLT PUSH2 0x211 JUMPI PUSH0 DUP1 REVERT JUMPDEST DUP2 CALLDATALOAD DUP2 DUP2 GT ISZERO PUSH2 0x223 JUMPI PUSH2 0x223 PUSH2 0x1C3 JUMP JUMPDEST PUSH1 0x40 MLOAD PUSH1 0x1F DUP3 ADD PUSH1 0x1F NOT SWAP1 DUP2 AND PUSH1 0x3F ADD AND DUP2 ADD SWAP1 DUP4 DUP3 GT DUP2 DUP4 LT OR ISZERO PUSH2 0x24B JUMPI PUSH2 0x24B PUSH2 0x1C3 JUMP JUMPDEST DUP2 PUSH1 0x40 MSTORE DUP3 DUP2 MSTORE DUP8 PUSH1 0x20 DUP5 DUP8 ADD ADD GT ISZERO PUSH2 0x263 JUMPI PUSH0 DUP1 REVERT JUMPDEST DUP3 PUSH1 0x20 DUP7 ADD PUSH1 0x20 DUP4 ADD CALLDATACOPY PUSH0 SWAP3 DUP2 ADD PUSH1 0x20 ADD SWAP3 SWAP1 SWAP3 MSTORE POP SWAP6 SWAP5 POP POP POP POP POP JUMP JUMPDEST PUSH0 PUSH1 0x20 DUP1 DUP4 MSTORE DUP4 MLOAD DUP1 PUSH1 0x20 DUP6 ADD MSTORE PUSH0 JUMPDEST DUP2 DUP2 LT ISZERO PUSH2 0x2AE JUMPI DUP6 DUP2 ADD DUP4 ADD MLOAD DUP6 DUP3 ADD PUSH1 0x40 ADD MSTORE DUP3 ADD PUSH2 0x292 JUMP JUMPDEST POP PUSH0 PUSH1 0x40 DUP3 DUP7 ADD ADD MSTORE PUSH1 0x40 PUSH1 0x1F NOT PUSH1 0x1F DUP4 ADD AND DUP6 ADD ADD SWAP3 POP POP POP SWAP3 SWAP2 POP POP JUMP JUMPDEST PUSH0 PUSH1 0x20 DUP3 DUP5 SUB SLT ISZERO PUSH2 0x2DE JUMPI PUSH0 DUP1 REVERT JUMPDEST POP CALLDATALOAD SWAP2 SWAP1 POP JUMP JUMPDEST PUSH4 0x4E487B71 PUSH1 0xE0 SHL PUSH0 MSTORE PUSH1 0x11 PUSH1 0x4 MSTORE PUSH1 0x24 PUSH0 REVERT JUMPDEST DUP1 DUP3 ADD DUP1 DUP3 GT ISZERO PUSH2 0x1BD JUMPI PUSH2 0x1BD PUSH2 0x2E5 JUMP JUMPDEST PUSH1 0x1 DUP2 DUP2 SHR SWAP1 DUP3 AND DUP1 PUSH2 0x320 JUMPI PUSH1 0x7F DUP3 AND SWAP2 POP JUMPDEST PUSH1 0x20 DUP3 LT DUP2 SUB PUSH2 0x33E JUMPI PUSH4 0x4E487B71 PUSH1 0xE0 SHL PUSH0 MSTORE PUSH1 0x22 PUSH1 0x4 MSTORE PUSH1 0x24 PUSH0 REVERT JUMPDEST POP SWAP2 SWAP1 POP JUMP JUMPDEST PUSH1 0x1F DUP3 GT ISZERO PUSH2 0x38B JUMPI DUP1 PUSH0 MSTORE PUSH1 0x20 PUSH0 KECCAK256 PUSH1 0x1F DUP5 ADD PUSH1 0x5 SHR DUP2 ADD PUSH1 0x20 DUP6 LT ISZERO PUSH2 0x369 JUMPI POP DUP1 JUMPDEST PUSH1 0x1F DUP5 ADD PUSH1 0x5 SHR DUP3 ADD SWAP2 POP JUMPDEST DUP2 DUP2 LT ISZERO PUSH2 0x388 JUMPI PUSH0 DUP2 SSTORE PUSH1 0x1 ADD PUSH2 0x375 JUMP JUMPDEST POP POP JUMPDEST POP POP POP JUMP JUMPDEST DUP2 MLOAD PUSH8 0xFFFFFFFFFFFFFFFF DUP2 GT ISZERO PUSH2 0x3AA JUMPI PUSH2 0x3AA PUSH2 0x1C3 JUMP JUMPDEST PUSH2 0x3BE DUP2 PUSH2 0x3B8 DUP5 SLOAD PUSH2 0x30C JUMP JUMPDEST DUP5 PUSH2 0x344 JUMP JUMPDEST PUSH1 0x20 DUP1 PUSH1 0x1F DUP4 GT PUSH1 0x1 DUP2 EQ PUSH2 0x3F1 JUMPI PUSH0 DUP5 ISZERO PUSH2 0x3DA JUMPI POP DUP6 DUP4 ADD MLOAD JUMPDEST PUSH0 NOT PUSH1 0x3 DUP7 SWAP1 SHL SHR NOT AND PUSH1 0x1 DUP6 SWAP1 SHL OR DUP6 SSTORE PUSH2 0x448 JUMP JUMPDEST PUSH0 DUP6 DUP2 MSTORE PUSH1 0x20 DUP2 KECCAK256 PUSH1 0x1F NOT DUP7 AND SWAP2 JUMPDEST DUP3 DUP2 LT ISZERO PUSH2 0x41F JUMPI DUP9 DUP7 ADD MLOAD DUP3 SSTORE SWAP5 DUP5 ADD SWAP5 PUSH1 0x1 SWAP1 SWAP2 ADD SWAP1 DUP5 ADD PUSH2 0x400 JUMP JUMPDEST POP DUP6 DUP3 LT ISZERO PUSH2 0x43C JUMPI DUP8 DUP6 ADD MLOAD PUSH0 NOT PUSH1 0x3 DUP9 SWAP1 SHL PUSH1 0xF8 AND SHR NOT AND DUP2 SSTORE JUMPDEST POP POP PUSH1 0x1 DUP5 PUSH1 0x1 SHL ADD DUP6 SSTORE JUMPDEST POP POP POP POP POP POP JUMP JUMPDEST DUP1 DUP3 MUL DUP2 ISZERO DUP3 DUP3 DIV DUP5 EQ OR PUSH2 0x1BD JUMPI PUSH2 0x1BD PUSH2 0x2E5 JUMP INVALID LOG2 PUSH5 0x6970667358 0x22 SLT KECCAK256 SWAP8 0xDF 0xE6 SELFBALANCE 0xCC PREVRANDAO DUP5 0xF SWAP14 LOG4 0xA6 0xDE PUSH15 0x26F879017BEF4162A7A5EB21465BFB 0x4D 0xB8 LOG3 LOG4 PUSH5 0x736F6C6343 STOP ADDMOD AND STOP CALLER "
				},
				"gasEstimates": {
					"creation": {
						"codeDepositCost": "236200",
						"executionCost": "infinite",
						"totalCost": "infinite"
					},
					"external": {
						"": "182",
						"balance()": "2327",
						"getBalance()": "149",
						"getMessage()": "infinite",
						"pay()": "24417",
						"rate(uint256)": "infinite",
						"setMessage(string)": "infinite"
					}
				},
				"methodIdentifiers": {
					"balance()": "b69ef8a8",
					"getBalance()": "12065fe0",
					"getMessage()": "ce6d41de",
					"pay()": "1b9265b8",
					"rate(uint256)": "e7ee6ad6",
					"setMessage(string)": "368b8772"
				}
			},
			"storageLayout": {
				"storage": [
					{
						"astId": 4,
						"contract": "Blockchain/function/l6_func_pure_view_payable_fallback.sol:Demo",
						"label": "message",
						"offset": 0,
						"slot": "0",
						"type": "t_string_storage"
					},
					{
						"astId": 6,
						"contract": "Blockchain/function/l6_func_pure_view_payable_fallback.sol:Demo",
						"label": "balance",
						"offset": 0,
						"slot": "1",
						"type": "t_uint256"
					}
				],
				"types": {
					"t_string_storage": {
						"encoding": "bytes",
						"label": "string",
						"numberOfBytes": "32"
					},
					"t_uint256": {
						"encoding": "inplace",
						"label": "uint256",
						"numberOfBytes": "32"
					}
				}
			},
			"userdoc": {
				"kind": "user",
				"methods": {},
				"version": 1
			}
		}
	}
}